{
    "_format": "hh-sol-artifact-1",
    "contractName": "MaintenanceTracker",
    "sourceName": "contracts/MaintenanceTracker.sol",
    "abi": [
        {
            "inputs": [
                {
                    "internalType": "address",
                    "name": "_tokenContractAddress",
                    "type": "address"
                },
                {
                    "internalType": "uint256",
                    "name": "_purchaseRatio",
                    "type": "uint256"
                }
            ],
            "stateMutability": "nonpayable",
            "type": "constructor"
        },
        {
            "anonymous": false,
            "inputs": [
                {
                    "indexed": true,
                    "internalType": "address",
                    "name": "owner",
                    "type": "address"
                },
                {
                    "indexed": true,
                    "internalType": "address",
                    "name": "approved",
                    "type": "address"
                },
                {
                    "indexed": true,
                    "internalType": "uint256",
                    "name": "tokenId",
                    "type": "uint256"
                }
            ],
            "name": "Approval",
            "type": "event"
        },
        {
            "anonymous": false,
            "inputs": [
                {
                    "indexed": true,
                    "internalType": "address",
                    "name": "owner",
                    "type": "address"
                },
                {
                    "indexed": true,
                    "internalType": "address",
                    "name": "operator",
                    "type": "address"
                },
                {
                    "indexed": false,
                    "internalType": "bool",
                    "name": "approved",
                    "type": "bool"
                }
            ],
            "name": "ApprovalForAll",
            "type": "event"
        },
        {
            "anonymous": false,
            "inputs": [
                {
                    "indexed": false,
                    "internalType": "uint256",
                    "name": "_fromTokenId",
                    "type": "uint256"
                },
                {
                    "indexed": false,
                    "internalType": "uint256",
                    "name": "_toTokenId",
                    "type": "uint256"
                }
            ],
            "name": "BatchMetadataUpdate",
            "type": "event"
        },
        {
            "anonymous": false,
            "inputs": [
                {
                    "indexed": false,
                    "internalType": "uint256",
                    "name": "amount",
                    "type": "uint256"
                }
            ],
            "name": "FundsWithdrawn",
            "type": "event"
        },
        {
            "anonymous": false,
            "inputs": [
                {
                    "indexed": false,
                    "internalType": "uint256",
                    "name": "newTokenId",
                    "type": "uint256"
                }
            ],
            "name": "MaintenanceTaskOpened",
            "type": "event"
        },
        {
            "anonymous": false,
            "inputs": [
                {
                    "indexed": false,
                    "internalType": "uint256",
                    "name": "_tokenId",
                    "type": "uint256"
                }
            ],
            "name": "MetadataUpdate",
            "type": "event"
        },
        {
            "anonymous": false,
            "inputs": [
                {
                    "indexed": true,
                    "internalType": "address",
                    "name": "previousOwner",
                    "type": "address"
                },
                {
                    "indexed": true,
                    "internalType": "address",
                    "name": "newOwner",
                    "type": "address"
                }
            ],
            "name": "OwnershipTransferred",
            "type": "event"
        },
        {
            "anonymous": false,
            "inputs": [
                {
                    "indexed": false,
                    "internalType": "uint256",
                    "name": "tokenId",
                    "type": "uint256"
                },
                {
                    "indexed": false,
                    "internalType": "address",
                    "name": "certifier",
                    "type": "address"
                }
            ],
            "name": "TaskCertified",
            "type": "event"
        },
        {
            "anonymous": false,
            "inputs": [
                {
                    "indexed": false,
                    "internalType": "uint256",
                    "name": "tokenId",
                    "type": "uint256"
                },
                {
                    "indexed": false,
                    "internalType": "uint256",
                    "name": "cost",
                    "type": "uint256"
                }
            ],
            "name": "TaskCompletedPaid",
            "type": "event"
        },
        {
            "anonymous": false,
            "inputs": [
                {
                    "indexed": true,
                    "internalType": "address",
                    "name": "from",
                    "type": "address"
                },
                {
                    "indexed": true,
                    "internalType": "address",
                    "name": "to",
                    "type": "address"
                },
                {
                    "indexed": true,
                    "internalType": "uint256",
                    "name": "tokenId",
                    "type": "uint256"
                }
            ],
            "name": "Transfer",
            "type": "event"
        },
        {
            "inputs": [
                {
                    "internalType": "address",
                    "name": "to",
                    "type": "address"
                },
                {
                    "internalType": "uint256",
                    "name": "tokenId",
                    "type": "uint256"
                }
            ],
            "name": "approve",
            "outputs": [],
            "stateMutability": "nonpayable",
            "type": "function"
        },
        {
            "inputs": [
                {
                    "internalType": "address",
                    "name": "owner",
                    "type": "address"
                }
            ],
            "name": "balanceOf",
            "outputs": [
                {
                    "internalType": "uint256",
                    "name": "",
                    "type": "uint256"
                }
            ],
            "stateMutability": "view",
            "type": "function"
        },
        {
            "inputs": [],
            "name": "buyTokens",
            "outputs": [],
            "stateMutability": "payable",
            "type": "function"
        },
        {
            "inputs": [
                {
                    "internalType": "uint256",
                    "name": "tokenId",
                    "type": "uint256"
                }
            ],
            "name": "certifyTask",
            "outputs": [],
            "stateMutability": "nonpayable",
            "type": "function"
        },
        {
            "inputs": [
                {
                    "internalType": "uint256",
                    "name": "tokenId",
                    "type": "uint256"
                }
            ],
            "name": "completeTask",
            "outputs": [],
            "stateMutability": "nonpayable",
            "type": "function"
        },
        {
            "inputs": [
                {
                    "internalType": "uint256",
                    "name": "tokenId",
                    "type": "uint256"
                }
            ],
            "name": "getApproved",
            "outputs": [
                {
                    "internalType": "address",
                    "name": "",
                    "type": "address"
                }
            ],
            "stateMutability": "view",
            "type": "function"
        },
        {
            "inputs": [
                {
                    "internalType": "address",
                    "name": "owner",
                    "type": "address"
                },
                {
                    "internalType": "address",
                    "name": "operator",
                    "type": "address"
                }
            ],
            "name": "isApprovedForAll",
            "outputs": [
                {
                    "internalType": "bool",
                    "name": "",
                    "type": "bool"
                }
            ],
            "stateMutability": "view",
            "type": "function"
        },
        {
            "inputs": [
                {
                    "internalType": "uint256",
                    "name": "",
                    "type": "uint256"
                }
            ],
            "name": "maintenanceTasks",
            "outputs": [
                {
                    "internalType": "string",
                    "name": "clientName",
                    "type": "string"
                },
                {
                    "internalType": "string",
                    "name": "systemName",
                    "type": "string"
                },
                {
                    "internalType": "string",
                    "name": "maintenanceName",
                    "type": "string"
                },
                {
                    "internalType": "string",
                    "name": "systemCycles",
                    "type": "string"
                },
                {
                    "internalType": "string",
                    "name": "estimatedTime",
                    "type": "string"
                },
                {
                    "internalType": "string",
                    "name": "startTime",
                    "type": "string"
                },
                {
                    "internalType": "uint256",
                    "name": "cost",
                    "type": "uint256"
                },
                {
                    "internalType": "enum MaintenanceTracker.TaskStatus",
                    "name": "generalStatus",
                    "type": "uint8"
                },
                {
                    "internalType": "enum MaintenanceTracker.ExecutionStatus",
                    "name": "executionStatus",
                    "type": "uint8"
                },
                {
                    "internalType": "address",
                    "name": "repairman",
                    "type": "address"
                },
                {
                    "internalType": "address",
                    "name": "qualityInspector",
                    "type": "address"
                }
            ],
            "stateMutability": "view",
            "type": "function"
        },
        {
            "inputs": [],
            "name": "name",
            "outputs": [
                {
                    "internalType": "string",
                    "name": "",
                    "type": "string"
                }
            ],
            "stateMutability": "view",
            "type": "function"
        },
        {
            "inputs": [
                {
                    "internalType": "string",
                    "name": "_clientName",
                    "type": "string"
                },
                {
                    "internalType": "string",
                    "name": "_systemName",
                    "type": "string"
                },
                {
                    "internalType": "string",
                    "name": "_maintenanceName",
                    "type": "string"
                },
                {
                    "internalType": "string",
                    "name": "_systemCycles",
                    "type": "string"
                },
                {
                    "internalType": "string",
                    "name": "_estimatedTime",
                    "type": "string"
                },
                {
                    "internalType": "string",
                    "name": "_startTime",
                    "type": "string"
                },
                {
                    "internalType": "uint256",
                    "name": "_cost",
                    "type": "uint256"
                },
                {
                    "internalType": "address",
                    "name": "_repairman",
                    "type": "address"
                },
                {
                    "internalType": "address",
                    "name": "_qualityInspector",
                    "type": "address"
                }
            ],
            "name": "openMaintenanceTask",
            "outputs": [
                {
                    "internalType": "uint256",
                    "name": "",
                    "type": "uint256"
                }
            ],
            "stateMutability": "nonpayable",
            "type": "function"
        },
        {
            "inputs": [],
            "name": "owner",
            "outputs": [
                {
                    "internalType": "address",
                    "name": "",
                    "type": "address"
                }
            ],
            "stateMutability": "view",
            "type": "function"
        },
        {
            "inputs": [
                {
                    "internalType": "uint256",
                    "name": "tokenId",
                    "type": "uint256"
                }
            ],
            "name": "ownerOf",
            "outputs": [
                {
                    "internalType": "address",
                    "name": "",
                    "type": "address"
                }
            ],
            "stateMutability": "view",
            "type": "function"
        },
        {
            "inputs": [
                {
                    "internalType": "uint256",
                    "name": "tokenId",
                    "type": "uint256"
                },
                {
                    "internalType": "uint256",
                    "name": "_amount",
                    "type": "uint256"
                },
                {
                    "internalType": "string",
                    "name": "_ipfsHash",
                    "type": "string"
                },
                {
                    "internalType": "string",
                    "name": "_nftImageIpfsHash",
                    "type": "string"
                }
            ],
            "name": "payForTask",
            "outputs": [],
            "stateMutability": "nonpayable",
            "type": "function"
        },
        {
            "inputs": [],
            "name": "purchaseRatio",
            "outputs": [
                {
                    "internalType": "uint256",
                    "name": "",
                    "type": "uint256"
                }
            ],
            "stateMutability": "view",
            "type": "function"
        },
        {
            "inputs": [],
            "name": "renounceOwnership",
            "outputs": [],
            "stateMutability": "nonpayable",
            "type": "function"
        },
        {
            "inputs": [
                {
                    "internalType": "address",
                    "name": "from",
                    "type": "address"
                },
                {
                    "internalType": "address",
                    "name": "to",
                    "type": "address"
                },
                {
                    "internalType": "uint256",
                    "name": "tokenId",
                    "type": "uint256"
                }
            ],
            "name": "safeTransferFrom",
            "outputs": [],
            "stateMutability": "nonpayable",
            "type": "function"
        },
        {
            "inputs": [
                {
                    "internalType": "address",
                    "name": "from",
                    "type": "address"
                },
                {
                    "internalType": "address",
                    "name": "to",
                    "type": "address"
                },
                {
                    "internalType": "uint256",
                    "name": "tokenId",
                    "type": "uint256"
                },
                {
                    "internalType": "bytes",
                    "name": "data",
                    "type": "bytes"
                }
            ],
            "name": "safeTransferFrom",
            "outputs": [],
            "stateMutability": "nonpayable",
            "type": "function"
        },
        {
            "inputs": [
                {
                    "internalType": "address",
                    "name": "operator",
                    "type": "address"
                },
                {
                    "internalType": "bool",
                    "name": "approved",
                    "type": "bool"
                }
            ],
            "name": "setApprovalForAll",
            "outputs": [],
            "stateMutability": "nonpayable",
            "type": "function"
        },
        {
            "inputs": [
                {
                    "internalType": "bytes4",
                    "name": "interfaceId",
                    "type": "bytes4"
                }
            ],
            "name": "supportsInterface",
            "outputs": [
                {
                    "internalType": "bool",
                    "name": "",
                    "type": "bool"
                }
            ],
            "stateMutability": "view",
            "type": "function"
        },
        {
            "inputs": [],
            "name": "symbol",
            "outputs": [
                {
                    "internalType": "string",
                    "name": "",
                    "type": "string"
                }
            ],
            "stateMutability": "view",
            "type": "function"
        },
        {
            "inputs": [],
            "name": "tokenContract",
            "outputs": [
                {
                    "internalType": "contract MaintenanceToken",
                    "name": "",
                    "type": "address"
                }
            ],
            "stateMutability": "view",
            "type": "function"
        },
        {
            "inputs": [],
            "name": "tokenIdCounter",
            "outputs": [
                {
                    "internalType": "uint256",
                    "name": "_value",
                    "type": "uint256"
                }
            ],
            "stateMutability": "view",
            "type": "function"
        },
        {
            "inputs": [
                {
                    "internalType": "uint256",
                    "name": "tokenId",
                    "type": "uint256"
                }
            ],
            "name": "tokenURI",
            "outputs": [
                {
                    "internalType": "string",
                    "name": "",
                    "type": "string"
                }
            ],
            "stateMutability": "view",
            "type": "function"
        },
        {
            "inputs": [
                {
                    "internalType": "address",
                    "name": "from",
                    "type": "address"
                },
                {
                    "internalType": "address",
                    "name": "to",
                    "type": "address"
                },
                {
                    "internalType": "uint256",
                    "name": "tokenId",
                    "type": "uint256"
                }
            ],
            "name": "transferFrom",
            "outputs": [],
            "stateMutability": "nonpayable",
            "type": "function"
        },
        {
            "inputs": [
                {
                    "internalType": "address",
                    "name": "newOwner",
                    "type": "address"
                }
            ],
            "name": "transferOwnership",
            "outputs": [],
            "stateMutability": "nonpayable",
            "type": "function"
        },
        {
            "inputs": [],
            "name": "treasuryBalance",
            "outputs": [
                {
                    "internalType": "uint256",
                    "name": "",
                    "type": "uint256"
                }
            ],
            "stateMutability": "view",
            "type": "function"
        },
        {
            "inputs": [],
            "name": "withdrawTreasuryEthAndBurn",
            "outputs": [],
            "stateMutability": "nonpayable",
            "type": "function"
        }
    ],
    "bytecode": "0x608034620003ae576001600160401b0390601f90601f196200343f388190038481018316840191908683118584101762000398578085926040948552833981010312620003ae5781516001600160a01b03948582169391849003620003ae57602080920151946200006f620003b3565b92601284527126b0b4b73a32b730b731b2aa3930b1b5b2b960711b8185015262000098620003b3565b906002825261135560f21b8183015284519584871162000398576000968754966001978881811c911680156200038d575b85821014620003795790818784931162000326575b508490878311600114620002c5578a92620002b9575b5050600019600383901b1c191690871b1787555b8251948511620002a55785548681811c911680156200029a575b8382101462000286579081858796959493116200022d575b5081938511600114620001c85750508592620001bc575b5050600019600383901b1c191690821b1790555b60075460018060a01b03199133838316176007557f8be0079c531659141344cd1fd0a4f28419497f9722a3daafe3b4186f6b6457e0604051963393169180a3600b541617600b5560095561306b9081620003d48239f35b01519050388062000151565b869593929193168588528388209388905b828210620002135750508411620001f9575b505050811b01905562000165565b015160001960f88460031b161c19169055388080620001eb565b8484015186558897909501949384019390810190620001d9565b9091929394508688528288208580880160051c8201928589106200027c575b9188978a9297969594930160051c01915b8281106200026d5750506200013a565b8a81558897508991016200025d565b925081926200024c565b634e487b7160e01b88526022600452602488fd5b90607f169062000122565b634e487b7160e01b87526041600452602487fd5b015190503880620000f4565b90848a9416918b8052868c20928c5b888282106200030f5750508411620002f5575b505050811b01875562000108565b015160001960f88460031b161c19169055388080620002e7565b8385015186558d97909501949384019301620002d4565b909150898052848a208780850160051c8201928786106200036f575b918b91869594930160051c01915b82811062000360575050620000de565b8c81558594508b910162000350565b9250819262000342565b634e487b7160e01b8a52602260045260248afd5b90607f1690620000c9565b634e487b7160e01b600052604160045260246000fd5b600080fd5b60408051919082016001600160401b03811183821017620003985760405256fe608080604052600436101561001357600080fd5b600090813560e01c90816301ffc9a7146123375750806306fdde0314612293578063081812fc14612274578063095ea7b3146120ff57806323b872dd146120da578063313dab20146120b757806342842e0e146120845780634ce253fa14611f4d5780634fd845491461162f57806355a373d6146116065780636352211e146115d557806370a082311461153f578063715018a6146114e25780638bf23c6d146108965780638da5cb5b1461086d57806390c882c51461078657806395cadc471461076857806395d89b411461068557806398bdf6f5146106675780639c2d758a146105c1578063a22cb465146104eb578063b88d4fde1461045e578063c87b56dd146103e7578063d0febe4c1461034a578063e1e2955814610266578063e985e9c5146102125763f2fde38b1461014a57600080fd5b3461020f57602036600319011261020f57610163612406565b61016b612678565b6001600160a01b039081169081156101bb57600754826001600160601b0360a01b821617600755167f8be0079c531659141344cd1fd0a4f28419497f9722a3daafe3b4186f6b6457e0600080a380f35b60405162461bcd60e51b815260206004820152602660248201527f4f776e61626c653a206e6577206f776e657220697320746865207a65726f206160448201526564647265737360d01b6064820152608490fd5b80fd5b503461020f57604036600319011261020f5761022c612406565b6040610236612421565b9260018060a01b0380931681526005602052209116600052602052602060ff604060002054166040519015158152f35b503461020f57602036600319011261020f57600435808252600a602052604082206007015460101c6001600160a01b0316330361031157808252600a6020526102c260ff6007604085200154166102bc816125e8565b15612bd6565b604080518281523360208201527f6b3c51c278cd3ae214e6d755eaf53974e7b1bab819965f9cad93da6fca69b17a9190a18152600a60205260408120600701805461ff00191661010017905580f35b60405162461bcd60e51b81526020600482015260116024820152702737ba103a3432903932b830b4b936b0b760791b6044820152606490fd5b508060031936011261020f5760018060a01b03600b54166009548034029034820414341517156103d1578183923b156103cd576040516340c10f1960e01b8152336004820152602481019290925282908290604490829084905af180156103c2576103b25750f35b6103bb906124d8565b61020f5780f35b6040513d84823e3d90fd5b5050fd5b634e487b7160e01b600052601160045260246000fd5b503461020f57602036600319011261020f5760043560008181526002602052604090205461041f906001600160a01b031615156126d0565b600052600660205261045a6104376040600020612542565b6000604051610445816124eb565b526040519182916020835260208301906123e1565b0390f35b503461020f57608036600319011261020f57610478612406565b610480612421565b90606435906044356001600160401b0383116104e757366023840112156104e7576104e4936104bc6104df943690602481600401359101612623565b926104cf6104ca8433612856565b61277d565b6104da83838361291e565b612b4b565b612832565b80f35b8480fd5b503461020f57604036600319011261020f57610505612406565b602435908115158092036105bd576001600160a01b0316903382146105785733835260056020526040832082600052602052604060002060ff1981541660ff83161790556040519081527f17307eab39ab6107e8899845ad3d59bd9653f200f220920489ca2b5937696c3160203392a380f35b60405162461bcd60e51b815260206004820152601960248201527f4552433732313a20617070726f766520746f2063616c6c6572000000000000006044820152606490fd5b8280fd5b503461020f578060031936011261020f576105da612678565b600b5481906001600160a01b03166105f0612fbd565b813b156103cd57604051632770a7eb60e21b8152306004820152602481019190915291908290604490829084905af180156103c257610658575b50808080804781811561064f575b3390f1156106435780f35b604051903d90823e3d90fd5b506108fc610638565b610661906124d8565b3861062a565b503461020f578060031936011261020f576020600854604051908152f35b503461020f578060031936011261020f57604051908060018054916106a98361246c565b8086529282811690811561073e57506001146106e4575b61045a856106d081870382612521565b6040519182916020835260208301906123e1565b92508083527fb10e2d527612073b26eecdfd717e6a320cf44b4afac2b0732d9fcbe2b7fa0cf65b8284106107265750505081016020016106d08261045a6106c0565b8054602085870181019190915290930192810161070b565b86955061045a969350602092506106d094915060ff191682840152151560051b82010192936106c0565b503461020f578060031936011261020f576020600954604051908152f35b503461020f57602036600319011261020f57600435808252600a60205260408220600801546001600160a01b0316330361082857808252600a6020526107d960ff6007604085200154166102bc816125e8565b604080518281523360208201527f6b3c51c278cd3ae214e6d755eaf53974e7b1bab819965f9cad93da6fca69b17a9190a18152600a60205260408120600701805461ffff191661020117905580f35b60405162461bcd60e51b815260206004820152601960248201527f4e6f7420746865207175616c69747920696e73706563746f72000000000000006044820152606490fd5b503461020f578060031936011261020f576007546040516001600160a01b039091168152602090f35b503461020f57608036600319011261020f576001600160401b03906044358281116111c6576108c990369060040161265a565b6064358381116105bd576108e190369060040161265a565b6004358352600a602052600160ff600760408620015416610901816125e8565b036114925781511561144d57805115611408576004358352600a60205260066040842001549182602435106113cc57600b54604051636eb1769f60e11b815233600482015230602482015290602090829060449082906001600160a01b03165afa9081156113c157908491869161138c575b5010611347576004358452600a60205260408420600701805460ff1916600217905561099d612678565b604051916109aa836124eb565b8483523315611303576102b5610cad9261101b92610a7d6104df611020976109f26109ec600435600052600260205260018060a01b0360406000205416151590565b15612c19565b600435600090815260026020526040902054610a18906001600160a01b031615156109ec565b338b52600360205260408b20600181540190556004358b52600260205260408b20336001600160601b0360a01b825416179055600435338c7fddf252ad1be2c89b69c2b068fc378daa952ba7f163c4a11628f55a4df523b3ef8180a460043533612a2f565b6004358852600a6020526040882060405190610a98826124a6565b610aa181612542565b8252610aaf60018201612542565b9260208301938452610ac360028301612542565b9360408401948552610ad760038401612542565b9060608501918252610aeb60048501612542565b60808601908152610afe60058601612542565b9260a08701938452600686015460c0880152610b8a610b7a600788015460ff8116610b28816125e8565b60e08b015260ff8160081c16610b3d816125e8565b6101008b015260101c6001600160a01b039081166101208b01819052600890990154166101408a0190815298519451995192519551935197612e17565b97516001600160a01b0316612e17565b9760ee6040519d8e809c7f7b226e616d65223a20224d61696e74656e616e6365204365727469666963617460208301526219488b60ea1b60408301527f226465736372697074696f6e223a202254686973206469676974616c2063657260438301527f7469666963617465207365727665732061732061757468656e7469632065766960638301527f64656e636520746861742074686520737065636966696564206d61696e74656e60838301527f616e6365206f7065726174696f6e73207765726520706572666f726d6564207560a38301527f6e64657220737065636966696320636f6e646974696f6e73222c00000000000060c3830152701132bc3a32b93730b62fbab936111d101160791b60dd830152602081519485930191016123be565b8a019561088b60f21b968760ee820152691134b6b0b3b2911d101160b11b60f0820152610ce482518093602060fa850191016123be565b01918660fa8401526e2261747472696275746573223a205b60881b60fc8401527f7b2274726169745f74797065223a2022636c69656e744e616d65222c0000000061010b84015269113b30b63ab2911d101160b11b9283610127820152855190610d58826101319860208a850191016123be565b019562089f4b60ea1b8781809998819901527f7b2274726169745f74797065223a202273797374656d4e616d65222c0000000061013482015285610150820152845190610daf8261015a97602089850191016123be565b01938401527f7b2274726169745f74797065223a20226d61696e74656e616e63654e616d652261015d84015285600b60fa1b938461017d8201528561017e820152835190610e078261018896602088850191016123be565b01928301527f7b22646973706c61795f74797065223a2022626f6f73745f6e756d626572222c61018b8301527f2274726169745f74797065223a202273797374656d4379636c6573222c0000006101ab830152680113b30b63ab2911d160bd1b91826101c8820152815190610e86826101d194602086850191016123be565b01611f4b60f21b80928201527f7b22646973706c61795f74797065223a202264617465222c000000000000000092836101d38301527f2274726169745f74797065223a2022312e20737461727454696d65222c0000006101eb830152610208820152855190610eff826102119860208a850191016123be565b01948501526102138401527f2274726169745f74797065223a2022322e20657374696d6174656454696d652261022b84015261024b83015261024c820152845190610f548261025697602089850191016123be565b01938401527f7b2274726169745f74797065223a20227265706169726d616e222c00000000006102598401526b044ecc2d8eaca4474404460f60a31b9283610274820152845190610faf8261028097602089850191016123be565b01938401527f7b2274726169745f74797065223a20227175616c697479496e73706563746f726102838401526102a38301526102a5820152815190610ffe826102b194602086850191016123be565b019063227d5d7d60e01b9082015203610295810184520182612521565b612c65565b92611074603d60405180967f646174613a6170706c69636174696f6e2f6a736f6e3b6261736536342c000000602083015261106481518092602086860191016123be565b810103601d810187520185612521565b6004356000908152600260205260409020546001600160a01b0316156112a7576004358352600660205260408320908451908111611293576110b6825461246c565b601f811161124e575b506020601f82116001146111e857849582939495926111dd575b50508160011b916000199060031b1c19161790555b7ff8e1a15aba9398e019f0b49df1a4fde98ee17ae345cb5f6b5e2c27f5033e8ce760206040516004358152a1600b546040516323b872dd60e01b815233600482015230602482015260448101839052906020908290606490829087906001600160a01b03165af180156111d257611196575b5060407f2f11a853e9f2a07e39e4abb90d08ae81c24efb59fe273a2dcce22e971c4134399181519060043582526020820152a180f35b6020813d6020116111ca575b816111af60209383612521565b810103126105bd5751801515036111c65738611160565b5080fd5b3d91506111a2565b6040513d85823e3d90fd5b0151905038806110d9565b8285526020852090855b601f1984168110611236575060019394959683601f1981161061121d575b505050811b0190556110ee565b015160001960f88460031b161c19169055388080611210565b9091602060018192858b0151815501930191016111f2565b82855260208520601f830160051c81019160208410611289575b601f0160051c01905b81811061127e57506110bf565b858155600101611271565b9091508190611268565b634e487b7160e01b84526041600452602484fd5b60405162461bcd60e51b815260206004820152602e60248201527f45524337323155524953746f726167653a2055524920736574206f66206e6f6e60448201526d32bc34b9ba32b73a103a37b5b2b760911b6064820152608490fd5b606460405162461bcd60e51b815260206004820152602060248201527f4552433732313a206d696e7420746f20746865207a65726f20616464726573736044820152fd5b60405162461bcd60e51b815260206004820152601760248201527f546f6b656e20617070726f76616c2072657175697265640000000000000000006044820152606490fd5b9150506020813d6020116113b9575b816113a860209383612521565b810103126104e75783905138610973565b3d915061139b565b6040513d87823e3d90fd5b60405162461bcd60e51b8152602060048201526014602482015273125b9cdd59999a58da595b9d081c185e5b595b9d60621b6044820152606490fd5b60405162461bcd60e51b815260206004820152601a60248201527f4e465420496d61676520495046532068617368206e65656465640000000000006044820152606490fd5b60405162461bcd60e51b815260206004820152601960248201527f4d6574616461746120495046532068617368206e6565646564000000000000006044820152606490fd5b60405162461bcd60e51b815260206004820152602260248201527f5461736b206e6f7420636f6d706c65746564206f7220616c72656164792070616044820152611a5960f21b6064820152608490fd5b503461020f578060031936011261020f576114fb612678565b600780546001600160a01b0319811690915581906001600160a01b03167f8be0079c531659141344cd1fd0a4f28419497f9722a3daafe3b4186f6b6457e08280a380f35b503461020f57602036600319011261020f576001600160a01b03611561612406565b16801561157e578160409160209352600383522054604051908152f35b60405162461bcd60e51b815260206004820152602960248201527f4552433732313a2061646472657373207a65726f206973206e6f7420612076616044820152683634b21037bbb732b960b91b6064820152608490fd5b503461020f57602036600319011261020f5760206115f460043561271c565b6040516001600160a01b039091168152f35b503461020f578060031936011261020f57600b546040516001600160a01b039091168152602090f35b503461020f5761012036600319011261020f576004356001600160401b0381116111c65761166190369060040161265a565b6024356001600160401b0381116105bd5761168090369060040161265a565b906044356001600160401b038111611f49576116a090369060040161265a565b6064356001600160401b0381116104e7576116bf90369060040161265a565b6084356001600160401b038111611f45576116de90369060040161265a565b60a4356001600160401b038111611f41576116fd90369060040161265a565b60e435929091906001600160a01b0384168403611f3d5761010435946001600160a01b0386168603611f3957600854976001890160085560405197611741896124a6565b8852602088015260408701526060860152608085015260a084015260c43560c08401528460e08401528461010084015260018060a01b031661012083015260018060a01b0316610140820152818352600a6020526040832081518051906001600160401b038211611b3c5781906117b8845461246c565b601f8111611eec575b50602090601f8311600114611e83578792611e78575b50508160011b916000199060031b1c19161781555b60208201518051906001600160401b038211611b3c578190611811600185015461246c565b601f8111611e28575b50602090601f8311600114611db9578792611dae575b50508160011b916000199060031b1c19161760018201555b60408201518051906001600160401b038211611b3c57819061186d600285015461246c565b601f8111611d5e575b50602090601f8311600114611cef578792611ce4575b50508160011b916000199060031b1c19161760028201555b60608201518051906001600160401b038211611b3c5781906118c9600385015461246c565b601f8111611c94575b50602090601f8311600114611c25578792611c1a575b50508160011b916000199060031b1c19161760038201555b60808201518051906001600160401b038211611b3c578190611925600485015461246c565b601f8111611bca575b50602090601f8311600114611b5b578792611b50575b50508160011b916000199060031b1c19161760048201555b60a08201519081516001600160401b038111611b3c5761197f600583015461246c565b601f8111611af8575b5060209586906001601f841114611a8c579060089483611a81575b50508160011b916000199060031b1c19161760058201555b60c083015160068201556007810160e08401516119d7816125e8565b6119e0816125e8565b815461ff00610100870151916119f5836125e8565b6119fe836125e8565b60ff62010000600160b01b036101208a015160101b1694169069ffffffffffffffffffff60b01b161791861b1617179055019061014060018060a01b03910151166001600160601b0360a01b8254161790557fead63b5d79f90d34ee1ebf407c200a42403989e85c19a317f1fdbadfe252beae82604051838152a1604051908152f35b0151905038806119a3565b919293601f198416600586018452888420935b818110611ae15750916001939185600897969410611ac8575b505050811b0160058201556119bb565b015160001960f88460031b161c19169055388080611ab8565b929389600181928786015181550195019301611a9f565b60058301875260208720601f830160051c810160208410611b35575b601f830160051c82018110611b2a575050611988565b888155600101611b14565b5080611b14565b634e487b7160e01b86526041600452602486fd5b015190503880611944565b9250600484018752602087209087935b601f1984168510611baf576001945083601f19811610611b96575b505050811b01600482015561195c565b015160001960f88460031b161c19169055388080611b86565b81810151835560209485019460019093019290910190611b6b565b90915060048401875260208720601f840160051c810160208510611c13575b90849392915b601f830160051c82018110611c0557505061192e565b898155859450600101611bef565b5080611be9565b0151905038806118e8565b9250600384018752602087209087935b601f1984168510611c79576001945083601f19811610611c60575b505050811b016003820155611900565b015160001960f88460031b161c19169055388080611c50565b81810151835560209485019460019093019290910190611c35565b90915060038401875260208720601f840160051c810160208510611cdd575b90849392915b601f830160051c82018110611ccf5750506118d2565b898155859450600101611cb9565b5080611cb3565b01519050388061188c565b9250600284018752602087209087935b601f1984168510611d43576001945083601f19811610611d2a575b505050811b0160028201556118a4565b015160001960f88460031b161c19169055388080611d1a565b81810151835560209485019460019093019290910190611cff565b90915060028401875260208720601f840160051c810160208510611da7575b90849392915b601f830160051c82018110611d99575050611876565b898155859450600101611d83565b5080611d7d565b015190503880611830565b9250600184018752602087209087935b601f1984168510611e0d576001945083601f19811610611df4575b505050811b016001820155611848565b015160001960f88460031b161c19169055388080611de4565b81810151835560209485019460019093019290910190611dc9565b90915060018401875260208720601f840160051c810160208510611e71575b90849392915b601f830160051c82018110611e6357505061181a565b898155859450600101611e4d565b5080611e47565b0151905038806117d7565b9250838752602087209087935b601f1984168510611ed1576001945083601f19811610611eb8575b505050811b0181556117ec565b015160001960f88460031b161c19169055388080611eab565b81810151835560209485019460019093019290910190611e90565b90915083875260208720601f840160051c810160208510611f32575b90849392915b601f830160051c82018110611f245750506117c1565b898155859450600101611f0e565b5080611f08565b8880fd5b8780fd5b8680fd5b8580fd5b8380fd5b503461020f57602036600319011261020f576004358152600a60205260409020611f7681612542565b611f8260018301612542565b91611f8f60028201612542565b611f9b60038301612542565b91611fa860048201612542565b92611fb560058301612542565b9060068301549460078401549260ff8416918460081c60ff1693600160a01b6001900360088198015416976040519b8c9b8c6101608091528d01611ff8916123e1565b8c810360208e0152612009916123e1565b8b810360408d015261201a916123e1565b8a810360608c015261202b916123e1565b89810360808b015261203c916123e1565b88810360a08a015261204d916123e1565b9560c088015261205c816125e8565b60e087015261206a816125e8565b61010086015260101c166101208401526101408301520390f35b503461020f576104e46104df61209936612437565b90604051926120a7846124eb565b8684526104cf6104ca8433612856565b503461020f578060031936011261020f5760206120d2612fbd565b604051908152f35b503461020f576104e46120ec36612437565b916120fa6104ca8433612856565b61291e565b503461020f57604036600319011261020f57612119612406565b602435906001600160a01b0380806121308561271c565b1692169180831461222557803314908115612204575b50156121995782845260046020526040842080546001600160a01b031916831790556121718361271c565b167f8c5be1e5ebec7d5bd14f71427d1e84f3dd0314c0f7b2291e5b200ac8c7c3b9258480a480f35b60405162461bcd60e51b815260206004820152603d60248201527f4552433732313a20617070726f76652063616c6c6572206973206e6f7420746f60448201527f6b656e206f776e6572206f7220617070726f76656420666f7220616c6c0000006064820152608490fd5b9050845260056020526040842033855260205260ff60408520541638612146565b60405162461bcd60e51b815260206004820152602160248201527f4552433732313a20617070726f76616c20746f2063757272656e74206f776e656044820152603960f91b6064820152608490fd5b503461020f57602036600319011261020f5760206115f460043561273f565b503461020f578060031936011261020f57604051908080546122b48161246c565b8085529160019180831690811561073e57506001146122dd5761045a856106d081870382612521565b80809450527f290decd9548b62a8d60345a988386fc84ba6bc95484008f6362f93160ef3e5635b82841061231f5750505081016020016106d08261045a6106c0565b80546020858701810191909152909301928101612304565b9050346111c65760203660031901126111c65760043563ffffffff60e01b81168091036105bd5760209250632483248360e11b811490811561237b575b5015158152f35b6380ac58cd60e01b8114915081156123ad575b811561239c575b5038612374565b6301ffc9a760e01b14905038612395565b635b5e139f60e01b8114915061238e565b60005b8381106123d15750506000910152565b81810151838201526020016123c1565b906020916123fa815180928185528580860191016123be565b601f01601f1916010190565b600435906001600160a01b038216820361241c57565b600080fd5b602435906001600160a01b038216820361241c57565b606090600319011261241c576001600160a01b0390600435828116810361241c5791602435908116810361241c579060443590565b90600182811c9216801561249c575b602083101461248657565b634e487b7160e01b600052602260045260246000fd5b91607f169161247b565b61016081019081106001600160401b038211176124c257604052565b634e487b7160e01b600052604160045260246000fd5b6001600160401b0381116124c257604052565b602081019081106001600160401b038211176124c257604052565b606081019081106001600160401b038211176124c257604052565b90601f801991011681019081106001600160401b038211176124c257604052565b90604051918260008254926125568461246c565b9081845260019485811690816000146125c55750600114612582575b505061258092500383612521565b565b9093915060005260209081600020936000915b8183106125ad57505061258093508201013880612572565b85548884018501529485019487945091830191612595565b91505061258094506020925060ff191682840152151560051b8201013880612572565b600311156125f257565b634e487b7160e01b600052602160045260246000fd5b6001600160401b0381116124c257601f01601f191660200190565b92919261262f82612608565b9161263d6040519384612521565b82948184528183011161241c578281602093846000960137010152565b9080601f8301121561241c5781602061267593359101612623565b90565b6007546001600160a01b0316330361268c57565b606460405162461bcd60e51b815260206004820152602060248201527f4f776e61626c653a2063616c6c6572206973206e6f7420746865206f776e65726044820152fd5b156126d757565b60405162461bcd60e51b815260206004820152601860248201527f4552433732313a20696e76616c696420746f6b656e20494400000000000000006044820152606490fd5b6000908152600260205260409020546001600160a01b03166126758115156126d0565b600081815260026020526040902054612762906001600160a01b031615156126d0565b6000908152600460205260409020546001600160a01b031690565b1561278457565b60405162461bcd60e51b815260206004820152602d60248201527f4552433732313a2063616c6c6572206973206e6f7420746f6b656e206f776e6560448201526c1c881bdc88185c1c1c9bdd9959609a1b6064820152608490fd5b60809060208152603260208201527f4552433732313a207472616e7366657220746f206e6f6e20455243373231526560408201527131b2b4bb32b91034b6b83632b6b2b73a32b960711b60608201520190565b1561283957565b60405162461bcd60e51b815280612852600482016127df565b0390fd5b906001600160a01b03808061286a8461271c565b1693169183831493841561289d575b508315612887575b50505090565b6128939192935061273f565b1614388080612881565b909350600052600560205260406000208260005260205260ff604060002054169238612879565b156128cb57565b60405162461bcd60e51b815260206004820152602560248201527f4552433732313a207472616e736665722066726f6d20696e636f72726563742060448201526437bbb732b960d91b6064820152608490fd5b906129469161292c8461271c565b6001600160a01b03939184169284929091831684146128c4565b169182156129de57816129639161295c8661271c565b16146128c4565b7fddf252ad1be2c89b69c2b068fc378daa952ba7f163c4a11628f55a4df523b3ef60008481526004602052604081206001600160601b0360a01b9081815416905583825260036020526040822060001981540190558482526040822060018154019055858252600260205284604083209182541617905580a4565b60405162461bcd60e51b8152602060048201526024808201527f4552433732313a207472616e7366657220746f20746865207a65726f206164646044820152637265737360e01b6064820152608490fd5b9192600092909190803b15612b4157612a7d946040518092630a85bd0160e11b9485835233600484015287602484015260448301526080606483015281878160209a8b9660848301906123e1565b03926001600160a01b03165af1849181612b01575b50612af0575050503d600014612ae8573d612aac81612608565b90612aba6040519283612521565b81528091833d92013e5b80519182612ae55760405162461bcd60e51b815280612852600482016127df565b01fd5b506060612ac4565b6001600160e01b0319161492509050565b9091508581813d8311612b3a575b612b198183612521565b810103126104e757516001600160e01b0319811681036104e7579038612a92565b503d612b0f565b5050915050600190565b9293600093909291803b15612bcb57948491612ba59660405180948193630a85bd0160e11b9788845233600485015260018060a01b0380921660248501526044840152608060648401528260209b8c9760848301906123e1565b0393165af1849181612b015750612af0575050503d600014612ae8573d612aac81612608565b505050915050600190565b15612bdd57565b60405162461bcd60e51b81526020600482015260146024820152735461736b206e6f7420696e2070726f677265737360601b6044820152606490fd5b15612c2057565b60405162461bcd60e51b815260206004820152601c60248201527f4552433732313a20746f6b656e20616c7265616479206d696e746564000000006044820152606490fd5b805115612db857604051612c7881612506565b604081527f4142434445464748494a4b4c4d4e4f505152535455565758595a61626364656660208201527f6768696a6b6c6d6e6f707172737475767778797a303132333435363738392b2f604082015281516002928382018092116103d15760039182900480851b94906001600160fe1b038116036103d15792612d14612cfe86612608565b95612d0c6040519788612521565b808752612608565b6020860190601f190136823793829183518401925b838110612d675750505050510680600114612d5457600214612d49575090565b603d90600019015390565b50603d9081600019820153600119015390565b85600491979293949701918251600190603f9082828260121c16880101518453828282600c1c16880101518385015382828260061c1688010151888501531685010151878201530195929190612d29565b50604051612dc5816124eb565b6000815290565b60ff60579116019060ff82116103d157565b60ff60309116019060ff82116103d157565b908151811015612e01570160200190565b634e487b7160e01b600052603260045260246000fd5b60405190612e2482612506565b60288252604036602084013760005b60148110612e4057505090565b60138181039081116103d157600381901b906001600160fd1b038116036103d15760ff908181116103d15760019081811b15612fa7576001600160a01b038516901c60f081168382160392600491600f90831c1690808511612f9257600a9182811015612f75576001600160f81b031990612eba90612dde565b60f81b16945b86851b956001600160ff1b0388168803612f605760001a612ee1878b612df0565b531690811015612f43576001600160f81b031990612efe90612dde565b60f81b16915b8301809311612f2e5750612f1c9060001a9185612df0565b5360001981146103d157600101612e33565b601190634e487b7160e01b6000525260246000fd5b6001600160f81b031990612f5690612dcc565b60f81b1691612f04565b601185634e487b7160e01b6000525260246000fd5b6001600160f81b031990612f8890612dcc565b60f81b1694612ec0565b601183634e487b7160e01b6000525260246000fd5b634e487b7160e01b600052601260045260246000fd5b600b546040516370a0823160e01b815230600482015290602090829060249082906001600160a01b03165afa90811561302957600091612ffb575090565b906020823d8211613021575b8161301460209383612521565b8101031261020f57505190565b3d9150613007565b6040513d6000823e3d90fdfea264697066735822122022ec05863b01f41010af52067cfe09f43418d738c48aa14e78a827fc66c40ccd64736f6c63430008130033",
    "linkReferences": {},
    "deployedLinkReferences": {}
}