{
  "_format": "hh-sol-artifact-1",
  "contractName": "MaintenanceTracker",
  "sourceName": "contracts/MaintenanceTracker.sol",
  "abi": [
    {
      "inputs": [
        {
          "internalType": "address",
          "name": "_tokenContractAddress",
          "type": "address"
        },
        {
          "internalType": "uint256",
          "name": "_purchaseRatio",
          "type": "uint256"
        }
      ],
      "stateMutability": "nonpayable",
      "type": "constructor"
    },
    {
      "anonymous": false,
      "inputs": [
        {
          "indexed": true,
          "internalType": "address",
          "name": "owner",
          "type": "address"
        },
        {
          "indexed": true,
          "internalType": "address",
          "name": "approved",
          "type": "address"
        },
        {
          "indexed": true,
          "internalType": "uint256",
          "name": "tokenId",
          "type": "uint256"
        }
      ],
      "name": "Approval",
      "type": "event"
    },
    {
      "anonymous": false,
      "inputs": [
        {
          "indexed": true,
          "internalType": "address",
          "name": "owner",
          "type": "address"
        },
        {
          "indexed": true,
          "internalType": "address",
          "name": "operator",
          "type": "address"
        },
        {
          "indexed": false,
          "internalType": "bool",
          "name": "approved",
          "type": "bool"
        }
      ],
      "name": "ApprovalForAll",
      "type": "event"
    },
    {
      "anonymous": false,
      "inputs": [
        {
          "indexed": false,
          "internalType": "uint256",
          "name": "_fromTokenId",
          "type": "uint256"
        },
        {
          "indexed": false,
          "internalType": "uint256",
          "name": "_toTokenId",
          "type": "uint256"
        }
      ],
      "name": "BatchMetadataUpdate",
      "type": "event"
    },
    {
      "anonymous": false,
      "inputs": [
        {
          "indexed": false,
          "internalType": "uint256",
          "name": "amount",
          "type": "uint256"
        }
      ],
      "name": "FundsWithdrawn",
      "type": "event"
    },
    {
      "anonymous": false,
      "inputs": [
        {
          "indexed": false,
          "internalType": "uint256",
          "name": "newTokenId",
          "type": "uint256"
        }
      ],
      "name": "MaintenanceTaskOpened",
      "type": "event"
    },
    {
      "anonymous": false,
      "inputs": [
        {
          "indexed": false,
          "internalType": "uint256",
          "name": "_tokenId",
          "type": "uint256"
        }
      ],
      "name": "MetadataUpdate",
      "type": "event"
    },
    {
      "anonymous": false,
      "inputs": [
        {
          "indexed": true,
          "internalType": "address",
          "name": "previousOwner",
          "type": "address"
        },
        {
          "indexed": true,
          "internalType": "address",
          "name": "newOwner",
          "type": "address"
        }
      ],
      "name": "OwnershipTransferred",
      "type": "event"
    },
    {
      "anonymous": false,
      "inputs": [
        {
          "indexed": false,
          "internalType": "uint256",
          "name": "tokenId",
          "type": "uint256"
        },
        {
          "indexed": false,
          "internalType": "address",
          "name": "certifier",
          "type": "address"
        }
      ],
      "name": "TaskCertified",
      "type": "event"
    },
    {
      "anonymous": false,
      "inputs": [
        {
          "indexed": false,
          "internalType": "uint256",
          "name": "tokenId",
          "type": "uint256"
        },
        {
          "indexed": false,
          "internalType": "uint256",
          "name": "cost",
          "type": "uint256"
        }
      ],
      "name": "TaskCompletedPaid",
      "type": "event"
    },
    {
      "anonymous": false,
      "inputs": [
        {
          "indexed": true,
          "internalType": "address",
          "name": "from",
          "type": "address"
        },
        {
          "indexed": true,
          "internalType": "address",
          "name": "to",
          "type": "address"
        },
        {
          "indexed": true,
          "internalType": "uint256",
          "name": "tokenId",
          "type": "uint256"
        }
      ],
      "name": "Transfer",
      "type": "event"
    },
    {
      "inputs": [
        {
          "internalType": "address",
          "name": "to",
          "type": "address"
        },
        {
          "internalType": "uint256",
          "name": "tokenId",
          "type": "uint256"
        }
      ],
      "name": "approve",
      "outputs": [],
      "stateMutability": "nonpayable",
      "type": "function"
    },
    {
      "inputs": [
        {
          "internalType": "address",
          "name": "owner",
          "type": "address"
        }
      ],
      "name": "balanceOf",
      "outputs": [
        {
          "internalType": "uint256",
          "name": "",
          "type": "uint256"
        }
      ],
      "stateMutability": "view",
      "type": "function"
    },
    {
      "inputs": [],
      "name": "buyTokens",
      "outputs": [],
      "stateMutability": "payable",
      "type": "function"
    },
    {
      "inputs": [
        {
          "internalType": "uint256",
          "name": "tokenId",
          "type": "uint256"
        }
      ],
      "name": "certifyTask",
      "outputs": [],
      "stateMutability": "nonpayable",
      "type": "function"
    },
    {
      "inputs": [
        {
          "internalType": "uint256",
          "name": "tokenId",
          "type": "uint256"
        }
      ],
      "name": "completeTask",
      "outputs": [],
      "stateMutability": "nonpayable",
      "type": "function"
    },
    {
      "inputs": [
        {
          "internalType": "uint256",
          "name": "tokenId",
          "type": "uint256"
        }
      ],
      "name": "getApproved",
      "outputs": [
        {
          "internalType": "address",
          "name": "",
          "type": "address"
        }
      ],
      "stateMutability": "view",
      "type": "function"
    },
    {
      "inputs": [
        {
          "internalType": "address",
          "name": "owner",
          "type": "address"
        },
        {
          "internalType": "address",
          "name": "operator",
          "type": "address"
        }
      ],
      "name": "isApprovedForAll",
      "outputs": [
        {
          "internalType": "bool",
          "name": "",
          "type": "bool"
        }
      ],
      "stateMutability": "view",
      "type": "function"
    },
    {
      "inputs": [
        {
          "internalType": "uint256",
          "name": "",
          "type": "uint256"
        }
      ],
      "name": "maintenanceTasks",
      "outputs": [
        {
          "internalType": "string",
          "name": "clientName",
          "type": "string"
        },
        {
          "internalType": "string",
          "name": "systemName",
          "type": "string"
        },
        {
          "internalType": "string",
          "name": "maintenanceName",
          "type": "string"
        },
        {
          "internalType": "string",
          "name": "systemCycles",
          "type": "string"
        },
        {
          "internalType": "string",
          "name": "estimatedTime",
          "type": "string"
        },
        {
          "internalType": "string",
          "name": "startTime",
          "type": "string"
        },
        {
          "internalType": "uint256",
          "name": "cost",
          "type": "uint256"
        },
        {
          "internalType": "enum MaintenanceTracker.TaskStatus",
          "name": "generalStatus",
          "type": "uint8"
        },
        {
          "internalType": "enum MaintenanceTracker.ExecutionStatus",
          "name": "executionStatus",
          "type": "uint8"
        },
        {
          "internalType": "address",
          "name": "repairman",
          "type": "address"
        },
        {
          "internalType": "address",
          "name": "qualityInspector",
          "type": "address"
        }
      ],
      "stateMutability": "view",
      "type": "function"
    },
    {
      "inputs": [
        {
          "internalType": "address",
          "name": "to",
          "type": "address"
        },
        {
          "internalType": "uint256",
          "name": "tokenId",
          "type": "uint256"
        },
        {
          "internalType": "string",
          "name": "_ipfsHash",
          "type": "string"
        },
        {
          "internalType": "string",
          "name": "_nftImageIpfsHash",
          "type": "string"
        }
      ],
      "name": "mint",
      "outputs": [],
      "stateMutability": "nonpayable",
      "type": "function"
    },
    {
      "inputs": [],
      "name": "name",
      "outputs": [
        {
          "internalType": "string",
          "name": "",
          "type": "string"
        }
      ],
      "stateMutability": "view",
      "type": "function"
    },
    {
      "inputs": [
        {
          "internalType": "string",
          "name": "_clientName",
          "type": "string"
        },
        {
          "internalType": "string",
          "name": "_systemName",
          "type": "string"
        },
        {
          "internalType": "string",
          "name": "_maintenanceName",
          "type": "string"
        },
        {
          "internalType": "string",
          "name": "_systemCycles",
          "type": "string"
        },
        {
          "internalType": "string",
          "name": "_estimatedTime",
          "type": "string"
        },
        {
          "internalType": "string",
          "name": "_startTime",
          "type": "string"
        },
        {
          "internalType": "uint256",
          "name": "_cost",
          "type": "uint256"
        },
        {
          "internalType": "address",
          "name": "_repairman",
          "type": "address"
        },
        {
          "internalType": "address",
          "name": "_qualityInspector",
          "type": "address"
        }
      ],
      "name": "openMaintenanceTask",
      "outputs": [
        {
          "internalType": "uint256",
          "name": "",
          "type": "uint256"
        }
      ],
      "stateMutability": "nonpayable",
      "type": "function"
    },
    {
      "inputs": [],
      "name": "owner",
      "outputs": [
        {
          "internalType": "address",
          "name": "",
          "type": "address"
        }
      ],
      "stateMutability": "view",
      "type": "function"
    },
    {
      "inputs": [
        {
          "internalType": "uint256",
          "name": "tokenId",
          "type": "uint256"
        }
      ],
      "name": "ownerOf",
      "outputs": [
        {
          "internalType": "address",
          "name": "",
          "type": "address"
        }
      ],
      "stateMutability": "view",
      "type": "function"
    },
    {
      "inputs": [
        {
          "internalType": "uint256",
          "name": "tokenId",
          "type": "uint256"
        },
        {
          "internalType": "uint256",
          "name": "_amount",
          "type": "uint256"
        },
        {
          "internalType": "string",
          "name": "_ipfsHash",
          "type": "string"
        },
        {
          "internalType": "string",
          "name": "_nftImageIpfsHash",
          "type": "string"
        }
      ],
      "name": "payForTask",
      "outputs": [],
      "stateMutability": "nonpayable",
      "type": "function"
    },
    {
      "inputs": [],
      "name": "purchaseRatio",
      "outputs": [
        {
          "internalType": "uint256",
          "name": "",
          "type": "uint256"
        }
      ],
      "stateMutability": "view",
      "type": "function"
    },
    {
      "inputs": [],
      "name": "renounceOwnership",
      "outputs": [],
      "stateMutability": "nonpayable",
      "type": "function"
    },
    {
      "inputs": [
        {
          "internalType": "address",
          "name": "from",
          "type": "address"
        },
        {
          "internalType": "address",
          "name": "to",
          "type": "address"
        },
        {
          "internalType": "uint256",
          "name": "tokenId",
          "type": "uint256"
        }
      ],
      "name": "safeTransferFrom",
      "outputs": [],
      "stateMutability": "nonpayable",
      "type": "function"
    },
    {
      "inputs": [
        {
          "internalType": "address",
          "name": "from",
          "type": "address"
        },
        {
          "internalType": "address",
          "name": "to",
          "type": "address"
        },
        {
          "internalType": "uint256",
          "name": "tokenId",
          "type": "uint256"
        },
        {
          "internalType": "bytes",
          "name": "data",
          "type": "bytes"
        }
      ],
      "name": "safeTransferFrom",
      "outputs": [],
      "stateMutability": "nonpayable",
      "type": "function"
    },
    {
      "inputs": [
        {
          "internalType": "address",
          "name": "operator",
          "type": "address"
        },
        {
          "internalType": "bool",
          "name": "approved",
          "type": "bool"
        }
      ],
      "name": "setApprovalForAll",
      "outputs": [],
      "stateMutability": "nonpayable",
      "type": "function"
    },
    {
      "inputs": [
        {
          "internalType": "bytes4",
          "name": "interfaceId",
          "type": "bytes4"
        }
      ],
      "name": "supportsInterface",
      "outputs": [
        {
          "internalType": "bool",
          "name": "",
          "type": "bool"
        }
      ],
      "stateMutability": "view",
      "type": "function"
    },
    {
      "inputs": [],
      "name": "symbol",
      "outputs": [
        {
          "internalType": "string",
          "name": "",
          "type": "string"
        }
      ],
      "stateMutability": "view",
      "type": "function"
    },
    {
      "inputs": [],
      "name": "tokenContract",
      "outputs": [
        {
          "internalType": "contract MaintenanceToken",
          "name": "",
          "type": "address"
        }
      ],
      "stateMutability": "view",
      "type": "function"
    },
    {
      "inputs": [],
      "name": "tokenIdCounter",
      "outputs": [
        {
          "internalType": "uint256",
          "name": "_value",
          "type": "uint256"
        }
      ],
      "stateMutability": "view",
      "type": "function"
    },
    {
      "inputs": [
        {
          "internalType": "uint256",
          "name": "tokenId",
          "type": "uint256"
        }
      ],
      "name": "tokenURI",
      "outputs": [
        {
          "internalType": "string",
          "name": "",
          "type": "string"
        }
      ],
      "stateMutability": "view",
      "type": "function"
    },
    {
      "inputs": [
        {
          "internalType": "address",
          "name": "from",
          "type": "address"
        },
        {
          "internalType": "address",
          "name": "to",
          "type": "address"
        },
        {
          "internalType": "uint256",
          "name": "tokenId",
          "type": "uint256"
        }
      ],
      "name": "transferFrom",
      "outputs": [],
      "stateMutability": "nonpayable",
      "type": "function"
    },
    {
      "inputs": [
        {
          "internalType": "address",
          "name": "newOwner",
          "type": "address"
        }
      ],
      "name": "transferOwnership",
      "outputs": [],
      "stateMutability": "nonpayable",
      "type": "function"
    },
    {
      "inputs": [],
      "name": "treasuryBalance",
      "outputs": [
        {
          "internalType": "uint256",
          "name": "",
          "type": "uint256"
        }
      ],
      "stateMutability": "view",
      "type": "function"
    },
    {
      "inputs": [],
      "name": "withdrawTreasuryEthAndBurn",
      "outputs": [],
      "stateMutability": "nonpayable",
      "type": "function"
    }
  ],
  "bytecode": "0x608034620003ae576001600160401b0390601f90601f1962003d3a388190038481018316840191908683118584101762000398578085926040948552833981010312620003ae5781516001600160a01b03948582169391849003620003ae57602080920151946200006f620003b3565b92601284527126b0b4b73a32b730b731b2aa3930b1b5b2b960711b8185015262000098620003b3565b906002825261135560f21b8183015284519584871162000398576000968754966001978881811c911680156200038d575b85821014620003795790818784931162000326575b508490878311600114620002c5578a92620002b9575b5050600019600383901b1c191690871b1787555b8251948511620002a55785548681811c911680156200029a575b8382101462000286579081858796959493116200022d575b5081938511600114620001c85750508592620001bc575b5050600019600383901b1c191690821b1790555b60075460018060a01b03199133838316176007557f8be0079c531659141344cd1fd0a4f28419497f9722a3daafe3b4186f6b6457e0604051963393169180a3600b541617600b556009556139669081620003d48239f35b01519050388062000151565b869593929193168588528388209388905b828210620002135750508411620001f9575b505050811b01905562000165565b015160001960f88460031b161c19169055388080620001eb565b8484015186558897909501949384019390810190620001d9565b9091929394508688528288208580880160051c8201928589106200027c575b9188978a9297969594930160051c01915b8281106200026d5750506200013a565b8a81558897508991016200025d565b925081926200024c565b634e487b7160e01b88526022600452602488fd5b90607f169062000122565b634e487b7160e01b87526041600452602487fd5b015190503880620000f4565b90848a9416918b8052868c20928c5b888282106200030f5750508411620002f5575b505050811b01875562000108565b015160001960f88460031b161c19169055388080620002e7565b8385015186558d97909501949384019301620002d4565b909150898052848a208780850160051c8201928786106200036f575b918b91869594930160051c01915b82811062000360575050620000de565b8c81558594508b910162000350565b9250819262000342565b634e487b7160e01b8a52602260045260248afd5b90607f1690620000c9565b634e487b7160e01b600052604160045260246000fd5b600080fd5b60408051919082016001600160401b03811183821017620003985760405256fe608080604052600436101561001357600080fd5b600090813560e01c90816301ffc9a714612c325750806306fdde0314612b8e578063081812fc14612b6f578063095ea7b3146129fa57806323b872dd146129d55780632fb102cf146120d7578063313dab20146120b457806342842e0e146120815780634ce253fa14611f4a5780634fd845491461162c57806355a373d6146116035780636352211e146115d257806370a082311461153c578063715018a6146114df5780638bf23c6d146108a15780638da5cb5b1461087857806390c882c51461079157806395cadc471461077357806395d89b411461069057806398bdf6f5146106725780639c2d758a146105cc578063a22cb465146104f6578063b88d4fde14610469578063c87b56dd146103f2578063d0febe4c14610355578063e1e2955814610271578063e985e9c51461021d5763f2fde38b1461015557600080fd5b3461021a57602036600319011261021a5761016e612d01565b610176612f73565b6001600160a01b039081169081156101c657600754826001600160601b0360a01b821617600755167f8be0079c531659141344cd1fd0a4f28419497f9722a3daafe3b4186f6b6457e0600080a380f35b60405162461bcd60e51b815260206004820152602660248201527f4f776e61626c653a206e6577206f776e657220697320746865207a65726f206160448201526564647265737360d01b6064820152608490fd5b80fd5b503461021a57604036600319011261021a57610237612d01565b6040610241612d1c565b9260018060a01b0380931681526005602052209116600052602052602060ff604060002054166040519015158152f35b503461021a57602036600319011261021a57600435808252600a602052604082206007015460101c6001600160a01b0316330361031c57808252600a6020526102cd60ff6007604085200154166102c781612f53565b156134d1565b604080518281523360208201527f6b3c51c278cd3ae214e6d755eaf53974e7b1bab819965f9cad93da6fca69b17a9190a18152600a60205260408120600701805461ff00191661010017905580f35b60405162461bcd60e51b81526020600482015260116024820152702737ba103a3432903932b830b4b936b0b760791b6044820152606490fd5b508060031936011261021a5760018060a01b03600b54166009548034029034820414341517156103dc578183923b156103d8576040516340c10f1960e01b8152336004820152602481019290925282908290604490829084905af180156103cd576103bd5750f35b6103c690612d99565b61021a5780f35b6040513d84823e3d90fd5b5050fd5b634e487b7160e01b600052601160045260246000fd5b503461021a57602036600319011261021a5760043560008181526002602052604090205461042a906001600160a01b03161515612fcb565b60005260066020526104656104426040600020612ead565b600060405161045081612dac565b52604051918291602083526020830190612cdc565b0390f35b503461021a57608036600319011261021a57610483612d01565b61048b612d1c565b90606435906044356001600160401b0383116104f257366023840112156104f2576104ef936104c76104ea943690602481600401359101612e1e565b926104da6104d58433613151565b613078565b6104e5838383613219565b613446565b61312d565b80f35b8480fd5b503461021a57604036600319011261021a57610510612d01565b602435908115158092036105c8576001600160a01b0316903382146105835733835260056020526040832082600052602052604060002060ff1981541660ff83161790556040519081527f17307eab39ab6107e8899845ad3d59bd9653f200f220920489ca2b5937696c3160203392a380f35b60405162461bcd60e51b815260206004820152601960248201527f4552433732313a20617070726f766520746f2063616c6c6572000000000000006044820152606490fd5b8280fd5b503461021a578060031936011261021a576105e5612f73565b600b5481906001600160a01b03166105fb6138b8565b813b156103d857604051632770a7eb60e21b8152306004820152602481019190915291908290604490829084905af180156103cd57610663575b50808080804781811561065a575b3390f11561064e5780f35b604051903d90823e3d90fd5b506108fc610643565b61066c90612d99565b38610635565b503461021a578060031936011261021a576020600854604051908152f35b503461021a578060031936011261021a57604051908060018054916106b483612e73565b8086529282811690811561074957506001146106ef575b610465856106db81870382612de2565b604051918291602083526020830190612cdc565b92508083527fb10e2d527612073b26eecdfd717e6a320cf44b4afac2b0732d9fcbe2b7fa0cf65b8284106107315750505081016020016106db826104656106cb565b80546020858701810191909152909301928101610716565b869550610465969350602092506106db94915060ff191682840152151560051b82010192936106cb565b503461021a578060031936011261021a576020600954604051908152f35b503461021a57602036600319011261021a57600435808252600a60205260408220600801546001600160a01b0316330361083357808252600a6020526107e460ff6007604085200154166102c781612f53565b604080518281523360208201527f6b3c51c278cd3ae214e6d755eaf53974e7b1bab819965f9cad93da6fca69b17a9190a18152600a60205260408120600701805461ffff191661020117905580f35b60405162461bcd60e51b815260206004820152601960248201527f4e6f7420746865207175616c69747920696e73706563746f72000000000000006044820152606490fd5b503461021a578060031936011261021a576007546040516001600160a01b039091168152602090f35b503461021a57608036600319011261021a576001600160401b03906044358281116111c3576108d4903690600401612e55565b6064358381116105c8576108ec903690600401612e55565b6004358352600a602052600160ff60076040862001541661090c81612f53565b0361148f5781511561144a57805115611405576004358352600a60205260066040842001549182602435106113c957600b54604051636eb1769f60e11b815233600482015230602482015290602090829060449082906001600160a01b03165afa9081156113be579084918691611389575b5010611344576004358452600a6020526040808520600701805460ff1916600217905551916109ac83612dac565b8483523315611300576102b5610caf9261101892610a7f6104ea61101d976109f46109ee600435600052600260205260018060a01b0360406000205416151590565b15613514565b600435600090815260026020526040902054610a1a906001600160a01b031615156109ee565b338b52600360205260408b20600181540190556004358b52600260205260408b20336001600160601b0360a01b825416179055600435338c7fddf252ad1be2c89b69c2b068fc378daa952ba7f163c4a11628f55a4df523b3ef8180a46004353361332a565b6004358852600a6020526040882060405190610a9a82612d67565b610aa381612ead565b8252610ab160018201612ead565b9260208301938452610ac560028301612ead565b9360408401948552610ad960038401612ead565b9060608501918252610aed60048501612ead565b60808601908152610b0060058601612ead565b9260a08701938452600686015460c0880152610b8c610b7c600788015460ff8116610b2a81612f53565b60e08b015260ff8160081c16610b3f81612f53565b6101008b015260101c6001600160a01b039081166101208b01819052600890990154166101408a0190815298519451995192519551935197613712565b97516001600160a01b0316613712565b9760ee6040519d8e809c7f7b226e616d65223a20224d61696e74656e616e6365204365727469666963617460208301526219488b60ea1b60408301527f226465736372697074696f6e223a202254686973206469676974616c2063657260438301527f7469666963617465207365727665732061732061757468656e7469632065766960638301527f64656e636520746861742074686520737065636966696564206d61696e74656e60838301527f616e6365206f7065726174696f6e73207765726520706572666f726d6564207560a38301527f6e64657220737065636966696320636f6e646974696f6e73222c00000000000060c3830152701132bc3a32b93730b62fbab936111d101160791b60dd83015260208151948593019101612cb9565b8a019561088b60f21b968760ee820152691134b6b0b3b2911d101160b11b60f0820152610ce682518093602060fa85019101612cb9565b01918660fa8401526e2261747472696275746573223a205b60881b60fc8401527f7b2274726169745f74797065223a2022636c69656e744e616d65222c0000000061010b84015269113b30b63ab2911d101160b11b9283610127820152855190610d5a826101319860208a85019101612cb9565b019562089f4b60ea1b8781809998819901527f7b2274726169745f74797065223a202273797374656d4e616d65222c0000000061013482015285610150820152845190610db18261015a9760208985019101612cb9565b01938401527f7b2274726169745f74797065223a20226d61696e74656e616e63654e616d652261015d84015285600b60fa1b938461017d8201528561017e820152835190610e09826101889660208885019101612cb9565b01928301527f7b22646973706c61795f74797065223a2022626f6f73745f6e756d626572222c61018b8301527f2274726169745f74797065223a202273797374656d4379636c6573222c0000006101ab830152680113b30b63ab2911d160bd1b91826101c8820152815190610e88826101d19460208685019101612cb9565b01611f4b60f21b8092820152771ec8991a5cdc1b185e57dd1e5c19488e880899185d19488b60421b92836101d38301527f2274726169745f74797065223a2022312e20737461727454696d65222c0000006101eb830152610208820152855190610efc826102119860208a85019101612cb9565b01948501526102138401527f2274726169745f74797065223a2022322e20657374696d6174656454696d652261022b84015261024b83015261024c820152845190610f51826102569760208985019101612cb9565b01938401527f7b2274726169745f74797065223a20227265706169726d616e222c00000000006102598401526b044ecc2d8eaca4474404460f60a31b9283610274820152845190610fac826102809760208985019101612cb9565b01938401527f7b2274726169745f74797065223a20227175616c697479496e73706563746f726102838401526102a38301526102a5820152815190610ffb826102b19460208685019101612cb9565b019063227d5d7d60e01b9082015203610295810184520182612de2565b613560565b92611071603d60405180967f646174613a6170706c69636174696f6e2f6a736f6e3b6261736536342c00000060208301526110618151809260208686019101612cb9565b810103601d810187520185612de2565b6004356000908152600260205260409020546001600160a01b0316156112a4576004358352600660205260408320908451908111611290576110b38254612e73565b601f811161124b575b506020601f82116001146111e557849582939495926111da575b50508160011b916000199060031b1c19161790555b7ff8e1a15aba9398e019f0b49df1a4fde98ee17ae345cb5f6b5e2c27f5033e8ce760206040516004358152a1600b546040516323b872dd60e01b815233600482015230602482015260448101839052906020908290606490829087906001600160a01b03165af180156111cf57611193575b5060407f2f11a853e9f2a07e39e4abb90d08ae81c24efb59fe273a2dcce22e971c4134399181519060043582526020820152a180f35b6020813d6020116111c7575b816111ac60209383612de2565b810103126105c85751801515036111c3573861115d565b5080fd5b3d915061119f565b6040513d85823e3d90fd5b0151905038806110d6565b8285526020852090855b601f1984168110611233575060019394959683601f1981161061121a575b505050811b0190556110eb565b015160001960f88460031b161c1916905538808061120d565b9091602060018192858b0151815501930191016111ef565b82855260208520601f830160051c81019160208410611286575b601f0160051c01905b81811061127b57506110bc565b85815560010161126e565b9091508190611265565b634e487b7160e01b84526041600452602484fd5b60405162461bcd60e51b815260206004820152602e60248201527f45524337323155524953746f726167653a2055524920736574206f66206e6f6e60448201526d32bc34b9ba32b73a103a37b5b2b760911b6064820152608490fd5b606460405162461bcd60e51b815260206004820152602060248201527f4552433732313a206d696e7420746f20746865207a65726f20616464726573736044820152fd5b60405162461bcd60e51b815260206004820152601760248201527f546f6b656e20617070726f76616c2072657175697265640000000000000000006044820152606490fd5b9150506020813d6020116113b6575b816113a560209383612de2565b810103126104f2578390513861097e565b3d9150611398565b6040513d87823e3d90fd5b60405162461bcd60e51b8152602060048201526014602482015273125b9cdd59999a58da595b9d081c185e5b595b9d60621b6044820152606490fd5b60405162461bcd60e51b815260206004820152601a60248201527f4e465420496d61676520495046532068617368206e65656465640000000000006044820152606490fd5b60405162461bcd60e51b815260206004820152601960248201527f4d6574616461746120495046532068617368206e6565646564000000000000006044820152606490fd5b60405162461bcd60e51b815260206004820152602260248201527f5461736b206e6f7420636f6d706c65746564206f7220616c72656164792070616044820152611a5960f21b6064820152608490fd5b503461021a578060031936011261021a576114f8612f73565b600780546001600160a01b0319811690915581906001600160a01b03167f8be0079c531659141344cd1fd0a4f28419497f9722a3daafe3b4186f6b6457e08280a380f35b503461021a57602036600319011261021a576001600160a01b0361155e612d01565b16801561157b578160409160209352600383522054604051908152f35b60405162461bcd60e51b815260206004820152602960248201527f4552433732313a2061646472657373207a65726f206973206e6f7420612076616044820152683634b21037bbb732b960b91b6064820152608490fd5b503461021a57602036600319011261021a5760206115f1600435613017565b6040516001600160a01b039091168152f35b503461021a578060031936011261021a57600b546040516001600160a01b039091168152602090f35b503461021a5761012036600319011261021a576004356001600160401b0381116111c35761165e903690600401612e55565b6024356001600160401b0381116105c85761167d903690600401612e55565b906044356001600160401b038111611f465761169d903690600401612e55565b6064356001600160401b0381116104f2576116bc903690600401612e55565b6084356001600160401b038111611f42576116db903690600401612e55565b60a4356001600160401b038111611f3e576116fa903690600401612e55565b60e435929091906001600160a01b0384168403611f3a5761010435946001600160a01b0386168603611f365760085497600189016008556040519761173e89612d67565b8852602088015260408701526060860152608085015260a084015260c43560c08401528460e08401528461010084015260018060a01b031661012083015260018060a01b0316610140820152818352600a6020526040832081518051906001600160401b038211611b395781906117b58454612e73565b601f8111611ee9575b50602090601f8311600114611e80578792611e75575b50508160011b916000199060031b1c19161781555b60208201518051906001600160401b038211611b3957819061180e6001850154612e73565b601f8111611e25575b50602090601f8311600114611db6578792611dab575b50508160011b916000199060031b1c19161760018201555b60408201518051906001600160401b038211611b3957819061186a6002850154612e73565b601f8111611d5b575b50602090601f8311600114611cec578792611ce1575b50508160011b916000199060031b1c19161760028201555b60608201518051906001600160401b038211611b395781906118c66003850154612e73565b601f8111611c91575b50602090601f8311600114611c22578792611c17575b50508160011b916000199060031b1c19161760038201555b60808201518051906001600160401b038211611b395781906119226004850154612e73565b601f8111611bc7575b50602090601f8311600114611b58578792611b4d575b50508160011b916000199060031b1c19161760048201555b60a08201519081516001600160401b038111611b395761197c6005830154612e73565b601f8111611af5575b5060209586906001601f841114611a89579060089483611a7e575b50508160011b916000199060031b1c19161760058201555b60c083015160068201556007810160e08401516119d481612f53565b6119dd81612f53565b815461ff00610100870151916119f283612f53565b6119fb83612f53565b60ff62010000600160b01b036101208a015160101b1694169069ffffffffffffffffffff60b01b161791861b1617179055019061014060018060a01b03910151166001600160601b0360a01b8254161790557fead63b5d79f90d34ee1ebf407c200a42403989e85c19a317f1fdbadfe252beae82604051838152a1604051908152f35b0151905038806119a0565b919293601f198416600586018452888420935b818110611ade5750916001939185600897969410611ac5575b505050811b0160058201556119b8565b015160001960f88460031b161c19169055388080611ab5565b929389600181928786015181550195019301611a9c565b60058301875260208720601f830160051c810160208410611b32575b601f830160051c82018110611b27575050611985565b888155600101611b11565b5080611b11565b634e487b7160e01b86526041600452602486fd5b015190503880611941565b9250600484018752602087209087935b601f1984168510611bac576001945083601f19811610611b93575b505050811b016004820155611959565b015160001960f88460031b161c19169055388080611b83565b81810151835560209485019460019093019290910190611b68565b90915060048401875260208720601f840160051c810160208510611c10575b90849392915b601f830160051c82018110611c0257505061192b565b898155859450600101611bec565b5080611be6565b0151905038806118e5565b9250600384018752602087209087935b601f1984168510611c76576001945083601f19811610611c5d575b505050811b0160038201556118fd565b015160001960f88460031b161c19169055388080611c4d565b81810151835560209485019460019093019290910190611c32565b90915060038401875260208720601f840160051c810160208510611cda575b90849392915b601f830160051c82018110611ccc5750506118cf565b898155859450600101611cb6565b5080611cb0565b015190503880611889565b9250600284018752602087209087935b601f1984168510611d40576001945083601f19811610611d27575b505050811b0160028201556118a1565b015160001960f88460031b161c19169055388080611d17565b81810151835560209485019460019093019290910190611cfc565b90915060028401875260208720601f840160051c810160208510611da4575b90849392915b601f830160051c82018110611d96575050611873565b898155859450600101611d80565b5080611d7a565b01519050388061182d565b9250600184018752602087209087935b601f1984168510611e0a576001945083601f19811610611df1575b505050811b016001820155611845565b015160001960f88460031b161c19169055388080611de1565b81810151835560209485019460019093019290910190611dc6565b90915060018401875260208720601f840160051c810160208510611e6e575b90849392915b601f830160051c82018110611e60575050611817565b898155859450600101611e4a565b5080611e44565b0151905038806117d4565b9250838752602087209087935b601f1984168510611ece576001945083601f19811610611eb5575b505050811b0181556117e9565b015160001960f88460031b161c19169055388080611ea8565b81810151835560209485019460019093019290910190611e8d565b90915083875260208720601f840160051c810160208510611f2f575b90849392915b601f830160051c82018110611f215750506117be565b898155859450600101611f0b565b5080611f05565b8880fd5b8780fd5b8680fd5b8580fd5b8380fd5b503461021a57602036600319011261021a576004358152600a60205260409020611f7381612ead565b611f7f60018301612ead565b91611f8c60028201612ead565b611f9860038301612ead565b91611fa560048201612ead565b92611fb260058301612ead565b9060068301549460078401549260ff8416918460081c60ff1693600160a01b6001900360088198015416976040519b8c9b8c6101608091528d01611ff591612cdc565b8c810360208e015261200691612cdc565b8b810360408d015261201791612cdc565b8a810360608c015261202891612cdc565b89810360808b015261203991612cdc565b88810360a08a015261204a91612cdc565b9560c088015261205981612f53565b60e087015261206781612f53565b61010086015260101c166101208401526101408301520390f35b503461021a576104ef6104ea61209636612d32565b90604051926120a484612dac565b8684526104da6104d58433613151565b503461021a578060031936011261021a5760206120cf6138b8565b604051908152f35b503461021a57608036600319011261021a576120f1612d01565b6001600160401b039190602435604435848111611f4657612116903690600401612e55565b6064358581116104f25761212e903690600401612e55565b9060405161213b81612dac565b8581526001600160a01b038581169390841561130057600086815260026020526040902054612173906001600160a01b031615613514565b600086815260026020526040902054612195906001600160a01b031615613514565b848852602096879360038552878060408c20986001998a8154019055818d526002885260408d20816001600160601b0360a01b8254161790558c7fddf252ad1be2c89b69c2b068fc378daa952ba7f163c4a11628f55a4df523b3ef8180a46121fc9261332a565b6122059061312d565b858852600a83528260408920926040519261221f84612d67565b61222885612ead565b8452612235858901612ead565b84840190815261224760028701612ead565b604086019081529561225b60038201612ead565b606087019081529261226f60048301612ead565b608088019081529061228360058401612ead565b9060a08901918252600684015460c08a01528080600786015460ff81166122a981612f53565b60e08d01528060081c60ff166122be81612f53565b6101008d015260101c1694856101208c01526008015416986101408101998a525194519951955191519251936122f390613712565b9851166122ff90613712565b9887806040519d8e9d8e017f7b226e616d65223a20224d61696e74656e616e6365204365727469666963617490528d6219488b60ea1b60408201526043017f226465736372697074696f6e223a202254686973206469676974616c2063657290528d606381017f7469666963617465207365727665732061732061757468656e7469632065766990526083017f64656e636520746861742074686520737065636966696564206d61696e74656e90528d60a381017f616e6365206f7065726174696f6e73207765726520706572666f726d65642075905260c3017f6e64657220737065636966696320636f6e646974696f6e73222c00000000000090528d701132bc3a32b93730b62fbab936111d101160791b9060dd01528d81519260ee84920192019161242c92612cb9565b8c019761088b60f21b988960ee820152691134b6b0b3b2911d101160b11b60f0820152815191828460fa840192019161246492612cb9565b01928860fa8501526e2261747472696275746573223a205b60881b60fc85015261010b84017f7b2274726169745f74797065223a2022636c69656e744e616d65222c00000000905269113b30b63ab2911d101160b11b93846101278201528751906101319882858b84019201916124da92612cb9565b019662089f4b60ea1b98898981809b948195015261013481017f7b2274726169745f74797065223a202273797374656d4e616d65222c0000000090528761015082015286519061015a9782888a840192019161253592612cb9565b019586015261015d85017f7b2274726169745f74797065223a20226d61696e74656e616e63654e616d65229052600b60fa1b948561017d8201528661017e820152815191826101889687840192019161258d92612cb9565b01928301527f7b22646973706c61795f74797065223a2022626f6f73745f6e756d626572222c61018b8301527f2274726169745f74797065223a202273797374656d4379636c6573222c0000006101ab830152680113b30b63ab2911d160bd1b6101c88301819052815190926101d19261260e908390858401908f01612cb9565b01611f4b60f21b8092820152771ec8991a5cdc1b185e57dd1e5c19488e880899185d19488b60421b92836101d38301526101eb82017f2274726169745f74797065223a2022312e20737461727454696d65222c000000905261020882015285519061021196828d89840192019161268492612cb9565b019485015261021384015261022b83017f2274726169745f74797065223a2022322e20657374696d6174656454696d6522905261024b83015261024c82015281519182610256978884019201916126da92612cb9565b019384015261025983017f7b2274726169745f74797065223a20227265706169726d616e222c000000000090526b044ecc2d8eaca4474404460f60a31b928361027482015284519061028095828d88840192019161273792612cb9565b019384015261028383017f7b2274726169745f74797065223a20227175616c697479496e73706563746f7290526102a38301526102a58201528151906102b192828985840192019161278892612cb9565b019063227d5d7d60e01b9082015203610295810182526102b5016127ac9082612de2565b6127b590613560565b9060405180928582017f646174613a6170706c69636174696f6e2f6a736f6e3b6261736536342c00000090528051908187603d85019201916127f692612cb9565b810103601d81018352603d0161280c9083612de2565b6000838152600260205260409020546001600160a01b031615612979578285526006845260408520918051968711611b39576128488354612e73565b601f8111612933575b508490601f88116001146128b557968092819288997ff8e1a15aba9398e019f0b49df1a4fde98ee17ae345cb5f6b5e2c27f5033e8ce799946128aa575b50501b916000199060031b1c19161790555b604051908152a180f35b01519250388061288e565b838752858720909791601f198316885b81811061291e575098837ff8e1a15aba9398e019f0b49df1a4fde98ee17ae345cb5f6b5e2c27f5033e8ce7999a10612905575b505050811b0190556128a0565b015160001960f88460031b161c191690553880806128f8565b8a8301518455928501929188019188016128c5565b838752858720601f890160051c810191878a1061296f575b601f0160051c019083905b828110612964575050612851565b888155018390612956565b909150819061294b565b60405162461bcd60e51b815260048101859052602e60248201527f45524337323155524953746f726167653a2055524920736574206f66206e6f6e60448201526d32bc34b9ba32b73a103a37b5b2b760911b6064820152608490fd5b503461021a576104ef6129e736612d32565b916129f56104d58433613151565b613219565b503461021a57604036600319011261021a57612a14612d01565b602435906001600160a01b038080612a2b85613017565b16921691808314612b2057803314908115612aff575b5015612a945782845260046020526040842080546001600160a01b03191683179055612a6c83613017565b167f8c5be1e5ebec7d5bd14f71427d1e84f3dd0314c0f7b2291e5b200ac8c7c3b9258480a480f35b60405162461bcd60e51b815260206004820152603d60248201527f4552433732313a20617070726f76652063616c6c6572206973206e6f7420746f60448201527f6b656e206f776e6572206f7220617070726f76656420666f7220616c6c0000006064820152608490fd5b9050845260056020526040842033855260205260ff60408520541638612a41565b60405162461bcd60e51b815260206004820152602160248201527f4552433732313a20617070726f76616c20746f2063757272656e74206f776e656044820152603960f91b6064820152608490fd5b503461021a57602036600319011261021a5760206115f160043561303a565b503461021a578060031936011261021a5760405190808054612baf81612e73565b808552916001918083169081156107495750600114612bd857610465856106db81870382612de2565b80809450527f290decd9548b62a8d60345a988386fc84ba6bc95484008f6362f93160ef3e5635b828410612c1a5750505081016020016106db826104656106cb565b80546020858701810191909152909301928101612bff565b9050346111c35760203660031901126111c35760043563ffffffff60e01b81168091036105c85760209250632483248360e11b8114908115612c76575b5015158152f35b6380ac58cd60e01b811491508115612ca8575b8115612c97575b5038612c6f565b6301ffc9a760e01b14905038612c90565b635b5e139f60e01b81149150612c89565b60005b838110612ccc5750506000910152565b8181015183820152602001612cbc565b90602091612cf581518092818552858086019101612cb9565b601f01601f1916010190565b600435906001600160a01b0382168203612d1757565b600080fd5b602435906001600160a01b0382168203612d1757565b6060906003190112612d17576001600160a01b03906004358281168103612d1757916024359081168103612d17579060443590565b61016081019081106001600160401b03821117612d8357604052565b634e487b7160e01b600052604160045260246000fd5b6001600160401b038111612d8357604052565b602081019081106001600160401b03821117612d8357604052565b606081019081106001600160401b03821117612d8357604052565b90601f801991011681019081106001600160401b03821117612d8357604052565b6001600160401b038111612d8357601f01601f191660200190565b929192612e2a82612e03565b91612e386040519384612de2565b829481845281830111612d17578281602093846000960137010152565b9080601f83011215612d1757816020612e7093359101612e1e565b90565b90600182811c92168015612ea3575b6020831014612e8d57565b634e487b7160e01b600052602260045260246000fd5b91607f1691612e82565b9060405191826000825492612ec184612e73565b908184526001948581169081600014612f305750600114612eed575b5050612eeb92500383612de2565b565b9093915060005260209081600020936000915b818310612f18575050612eeb93508201013880612edd565b85548884018501529485019487945091830191612f00565b915050612eeb94506020925060ff191682840152151560051b8201013880612edd565b60031115612f5d57565b634e487b7160e01b600052602160045260246000fd5b6007546001600160a01b03163303612f8757565b606460405162461bcd60e51b815260206004820152602060248201527f4f776e61626c653a2063616c6c6572206973206e6f7420746865206f776e65726044820152fd5b15612fd257565b60405162461bcd60e51b815260206004820152601860248201527f4552433732313a20696e76616c696420746f6b656e20494400000000000000006044820152606490fd5b6000908152600260205260409020546001600160a01b0316612e70811515612fcb565b60008181526002602052604090205461305d906001600160a01b03161515612fcb565b6000908152600460205260409020546001600160a01b031690565b1561307f57565b60405162461bcd60e51b815260206004820152602d60248201527f4552433732313a2063616c6c6572206973206e6f7420746f6b656e206f776e6560448201526c1c881bdc88185c1c1c9bdd9959609a1b6064820152608490fd5b60809060208152603260208201527f4552433732313a207472616e7366657220746f206e6f6e20455243373231526560408201527131b2b4bb32b91034b6b83632b6b2b73a32b960711b60608201520190565b1561313457565b60405162461bcd60e51b81528061314d600482016130da565b0390fd5b906001600160a01b03808061316584613017565b16931691838314938415613198575b508315613182575b50505090565b61318e9192935061303a565b161438808061317c565b909350600052600560205260406000208260005260205260ff604060002054169238613174565b156131c657565b60405162461bcd60e51b815260206004820152602560248201527f4552433732313a207472616e736665722066726f6d20696e636f72726563742060448201526437bbb732b960d91b6064820152608490fd5b906132419161322784613017565b6001600160a01b03939184169284929091831684146131bf565b169182156132d9578161325e9161325786613017565b16146131bf565b7fddf252ad1be2c89b69c2b068fc378daa952ba7f163c4a11628f55a4df523b3ef60008481526004602052604081206001600160601b0360a01b9081815416905583825260036020526040822060001981540190558482526040822060018154019055858252600260205284604083209182541617905580a4565b60405162461bcd60e51b8152602060048201526024808201527f4552433732313a207472616e7366657220746f20746865207a65726f206164646044820152637265737360e01b6064820152608490fd5b9192600092909190803b1561343c57613378946040518092630a85bd0160e11b9485835233600484015287602484015260448301526080606483015281878160209a8b966084830190612cdc565b03926001600160a01b03165af18491816133fc575b506133eb575050503d6000146133e3573d6133a781612e03565b906133b56040519283612de2565b81528091833d92013e5b805191826133e05760405162461bcd60e51b81528061314d600482016130da565b01fd5b5060606133bf565b6001600160e01b0319161492509050565b9091508581813d8311613435575b6134148183612de2565b810103126104f257516001600160e01b0319811681036104f257903861338d565b503d61340a565b5050915050600190565b9293600093909291803b156134c6579484916134a09660405180948193630a85bd0160e11b9788845233600485015260018060a01b0380921660248501526044840152608060648401528260209b8c976084830190612cdc565b0393165af18491816133fc57506133eb575050503d6000146133e3573d6133a781612e03565b505050915050600190565b156134d857565b60405162461bcd60e51b81526020600482015260146024820152735461736b206e6f7420696e2070726f677265737360601b6044820152606490fd5b1561351b57565b60405162461bcd60e51b815260206004820152601c60248201527f4552433732313a20746f6b656e20616c7265616479206d696e746564000000006044820152606490fd5b8051156136b35760405161357381612dc7565b604081527f4142434445464748494a4b4c4d4e4f505152535455565758595a61626364656660208201527f6768696a6b6c6d6e6f707172737475767778797a303132333435363738392b2f604082015281516002928382018092116103dc5760039182900480851b94906001600160fe1b038116036103dc579261360f6135f986612e03565b956136076040519788612de2565b808752612e03565b6020860190601f190136823793829183518401925b838110613662575050505051068060011461364f57600214613644575090565b603d90600019015390565b50603d9081600019820153600119015390565b85600491979293949701918251600190603f9082828260121c16880101518453828282600c1c16880101518385015382828260061c1688010151888501531685010151878201530195929190613624565b506040516136c081612dac565b6000815290565b60ff60579116019060ff82116103dc57565b60ff60309116019060ff82116103dc57565b9081518110156136fc570160200190565b634e487b7160e01b600052603260045260246000fd5b6040519061371f82612dc7565b60288252604036602084013760005b6014811061373b57505090565b60138181039081116103dc57600381901b906001600160fd1b038116036103dc5760ff908181116103dc5760019081811b156138a2576001600160a01b038516901c60f081168382160392600491600f90831c169080851161388d57600a9182811015613870576001600160f81b0319906137b5906136d9565b60f81b16945b86851b956001600160ff1b038816880361385b5760001a6137dc878b6136eb565b53169081101561383e576001600160f81b0319906137f9906136d9565b60f81b16915b830180931161382957506138179060001a91856136eb565b5360001981146103dc5760010161372e565b601190634e487b7160e01b6000525260246000fd5b6001600160f81b031990613851906136c7565b60f81b16916137ff565b601185634e487b7160e01b6000525260246000fd5b6001600160f81b031990613883906136c7565b60f81b16946137bb565b601183634e487b7160e01b6000525260246000fd5b634e487b7160e01b600052601260045260246000fd5b600b546040516370a0823160e01b815230600482015290602090829060249082906001600160a01b03165afa908115613924576000916138f6575090565b906020823d821161391c575b8161390f60209383612de2565b8101031261021a57505190565b3d9150613902565b6040513d6000823e3d90fdfea2646970667358221220e546faf5cc378cc2bb3dd3919aa7abeabbe4a91f75cb19f5db0eb120cd0d2ffd64736f6c63430008130033",
  "linkReferences": {},
  "deployedLinkReferences": {}
}