{
  "_format": "hh-sol-artifact-1",
  "contractName": "MaintenanceToken",
  "sourceName": "contracts/MaintenanceToken.sol",
  "abi": [
    {
      "inputs": [],
      "stateMutability": "nonpayable",
      "type": "constructor"
    },
    {
      "anonymous": false,
      "inputs": [
        {
          "indexed": true,
          "internalType": "address",
          "name": "owner",
          "type": "address"
        },
        {
          "indexed": true,
          "internalType": "address",
          "name": "spender",
          "type": "address"
        },
        {
          "indexed": false,
          "internalType": "uint256",
          "name": "value",
          "type": "uint256"
        }
      ],
      "name": "Approval",
      "type": "event"
    },
    {
      "anonymous": false,
      "inputs": [
        {
          "indexed": true,
          "internalType": "bytes32",
          "name": "role",
          "type": "bytes32"
        },
        {
          "indexed": true,
          "internalType": "bytes32",
          "name": "previousAdminRole",
          "type": "bytes32"
        },
        {
          "indexed": true,
          "internalType": "bytes32",
          "name": "newAdminRole",
          "type": "bytes32"
        }
      ],
      "name": "RoleAdminChanged",
      "type": "event"
    },
    {
      "anonymous": false,
      "inputs": [
        {
          "indexed": true,
          "internalType": "bytes32",
          "name": "role",
          "type": "bytes32"
        },
        {
          "indexed": true,
          "internalType": "address",
          "name": "account",
          "type": "address"
        },
        {
          "indexed": true,
          "internalType": "address",
          "name": "sender",
          "type": "address"
        }
      ],
      "name": "RoleGranted",
      "type": "event"
    },
    {
      "anonymous": false,
      "inputs": [
        {
          "indexed": true,
          "internalType": "bytes32",
          "name": "role",
          "type": "bytes32"
        },
        {
          "indexed": true,
          "internalType": "address",
          "name": "account",
          "type": "address"
        },
        {
          "indexed": true,
          "internalType": "address",
          "name": "sender",
          "type": "address"
        }
      ],
      "name": "RoleRevoked",
      "type": "event"
    },
    {
      "anonymous": false,
      "inputs": [
        {
          "indexed": true,
          "internalType": "address",
          "name": "from",
          "type": "address"
        },
        {
          "indexed": true,
          "internalType": "address",
          "name": "to",
          "type": "address"
        },
        {
          "indexed": false,
          "internalType": "uint256",
          "name": "value",
          "type": "uint256"
        }
      ],
      "name": "Transfer",
      "type": "event"
    },
    {
      "inputs": [],
      "name": "DEFAULT_ADMIN_ROLE",
      "outputs": [
        {
          "internalType": "bytes32",
          "name": "",
          "type": "bytes32"
        }
      ],
      "stateMutability": "view",
      "type": "function"
    },
    {
      "inputs": [],
      "name": "MINTER_ROLE",
      "outputs": [
        {
          "internalType": "bytes32",
          "name": "",
          "type": "bytes32"
        }
      ],
      "stateMutability": "view",
      "type": "function"
    },
    {
      "inputs": [
        {
          "internalType": "address",
          "name": "owner",
          "type": "address"
        },
        {
          "internalType": "address",
          "name": "spender",
          "type": "address"
        }
      ],
      "name": "allowance",
      "outputs": [
        {
          "internalType": "uint256",
          "name": "",
          "type": "uint256"
        }
      ],
      "stateMutability": "view",
      "type": "function"
    },
    {
      "inputs": [
        {
          "internalType": "address",
          "name": "spender",
          "type": "address"
        },
        {
          "internalType": "uint256",
          "name": "amount",
          "type": "uint256"
        }
      ],
      "name": "approve",
      "outputs": [
        {
          "internalType": "bool",
          "name": "",
          "type": "bool"
        }
      ],
      "stateMutability": "nonpayable",
      "type": "function"
    },
    {
      "inputs": [
        {
          "internalType": "address",
          "name": "account",
          "type": "address"
        }
      ],
      "name": "balanceOf",
      "outputs": [
        {
          "internalType": "uint256",
          "name": "",
          "type": "uint256"
        }
      ],
      "stateMutability": "view",
      "type": "function"
    },
    {
      "inputs": [
        {
          "internalType": "address",
          "name": "to",
          "type": "address"
        },
        {
          "internalType": "uint256",
          "name": "amount",
          "type": "uint256"
        }
      ],
      "name": "burn",
      "outputs": [],
      "stateMutability": "nonpayable",
      "type": "function"
    },
    {
      "inputs": [],
      "name": "decimals",
      "outputs": [
        {
          "internalType": "uint8",
          "name": "",
          "type": "uint8"
        }
      ],
      "stateMutability": "view",
      "type": "function"
    },
    {
      "inputs": [
        {
          "internalType": "address",
          "name": "spender",
          "type": "address"
        },
        {
          "internalType": "uint256",
          "name": "subtractedValue",
          "type": "uint256"
        }
      ],
      "name": "decreaseAllowance",
      "outputs": [
        {
          "internalType": "bool",
          "name": "",
          "type": "bool"
        }
      ],
      "stateMutability": "nonpayable",
      "type": "function"
    },
    {
      "inputs": [
        {
          "internalType": "bytes32",
          "name": "role",
          "type": "bytes32"
        }
      ],
      "name": "getRoleAdmin",
      "outputs": [
        {
          "internalType": "bytes32",
          "name": "",
          "type": "bytes32"
        }
      ],
      "stateMutability": "view",
      "type": "function"
    },
    {
      "inputs": [
        {
          "internalType": "address",
          "name": "to",
          "type": "address"
        }
      ],
      "name": "grantMint",
      "outputs": [],
      "stateMutability": "nonpayable",
      "type": "function"
    },
    {
      "inputs": [
        {
          "internalType": "bytes32",
          "name": "role",
          "type": "bytes32"
        },
        {
          "internalType": "address",
          "name": "account",
          "type": "address"
        }
      ],
      "name": "grantRole",
      "outputs": [],
      "stateMutability": "nonpayable",
      "type": "function"
    },
    {
      "inputs": [
        {
          "internalType": "bytes32",
          "name": "role",
          "type": "bytes32"
        },
        {
          "internalType": "address",
          "name": "account",
          "type": "address"
        }
      ],
      "name": "hasRole",
      "outputs": [
        {
          "internalType": "bool",
          "name": "",
          "type": "bool"
        }
      ],
      "stateMutability": "view",
      "type": "function"
    },
    {
      "inputs": [
        {
          "internalType": "address",
          "name": "spender",
          "type": "address"
        },
        {
          "internalType": "uint256",
          "name": "addedValue",
          "type": "uint256"
        }
      ],
      "name": "increaseAllowance",
      "outputs": [
        {
          "internalType": "bool",
          "name": "",
          "type": "bool"
        }
      ],
      "stateMutability": "nonpayable",
      "type": "function"
    },
    {
      "inputs": [
        {
          "internalType": "address",
          "name": "to",
          "type": "address"
        },
        {
          "internalType": "uint256",
          "name": "amount",
          "type": "uint256"
        }
      ],
      "name": "mint",
      "outputs": [],
      "stateMutability": "nonpayable",
      "type": "function"
    },
    {
      "inputs": [],
      "name": "name",
      "outputs": [
        {
          "internalType": "string",
          "name": "",
          "type": "string"
        }
      ],
      "stateMutability": "view",
      "type": "function"
    },
    {
      "inputs": [
        {
          "internalType": "bytes32",
          "name": "role",
          "type": "bytes32"
        },
        {
          "internalType": "address",
          "name": "account",
          "type": "address"
        }
      ],
      "name": "renounceRole",
      "outputs": [],
      "stateMutability": "nonpayable",
      "type": "function"
    },
    {
      "inputs": [
        {
          "internalType": "bytes32",
          "name": "role",
          "type": "bytes32"
        },
        {
          "internalType": "address",
          "name": "account",
          "type": "address"
        }
      ],
      "name": "revokeRole",
      "outputs": [],
      "stateMutability": "nonpayable",
      "type": "function"
    },
    {
      "inputs": [
        {
          "internalType": "bytes4",
          "name": "interfaceId",
          "type": "bytes4"
        }
      ],
      "name": "supportsInterface",
      "outputs": [
        {
          "internalType": "bool",
          "name": "",
          "type": "bool"
        }
      ],
      "stateMutability": "view",
      "type": "function"
    },
    {
      "inputs": [],
      "name": "symbol",
      "outputs": [
        {
          "internalType": "string",
          "name": "",
          "type": "string"
        }
      ],
      "stateMutability": "view",
      "type": "function"
    },
    {
      "inputs": [],
      "name": "totalSupply",
      "outputs": [
        {
          "internalType": "uint256",
          "name": "",
          "type": "uint256"
        }
      ],
      "stateMutability": "view",
      "type": "function"
    },
    {
      "inputs": [
        {
          "internalType": "address",
          "name": "to",
          "type": "address"
        },
        {
          "internalType": "uint256",
          "name": "amount",
          "type": "uint256"
        }
      ],
      "name": "transfer",
      "outputs": [
        {
          "internalType": "bool",
          "name": "",
          "type": "bool"
        }
      ],
      "stateMutability": "nonpayable",
      "type": "function"
    },
    {
      "inputs": [
        {
          "internalType": "address",
          "name": "from",
          "type": "address"
        },
        {
          "internalType": "address",
          "name": "to",
          "type": "address"
        },
        {
          "internalType": "uint256",
          "name": "amount",
          "type": "uint256"
        }
      ],
      "name": "transferFrom",
      "outputs": [
        {
          "internalType": "bool",
          "name": "",
          "type": "bool"
        }
      ],
      "stateMutability": "nonpayable",
      "type": "function"
    }
  ],
  "bytecode": "0x608034620003f8576001600160401b039060409080820183811182821017620002f8578252601081526020906f26b0b4b73a32b730b731b2aa37b5b2b760811b8282015282519383850185811082821117620002f85784526003908186526213551560ea1b84870152825191818311620002f8578054926001948585811c95168015620003ed575b87861014620003d7578190601f9586811162000381575b5087908683116001146200031a576000926200030e575b505060001982841b1c191690851b1781555b8651918211620002f85760049283548581811c91168015620002ed575b87821014620002d8578181116200028d575b5085908311600114620002215782939495969760009362000215575b505082851b92600019911b1c19161790555b60008052600582528260002033600052825260ff83600020541615620001d8575b7f9f2df0fed2c77648de5860a4cc508cd0818c85b8b8a1ab4ceeef8d981c8956a69182600052600581528360002033600052815260ff8460002054161562000197575b835161154a9081620003fe8239f35b826000526005815283600020903360005252826000209060ff198254161790553390339060008051602062001948833981519152600080a438808062000188565b600080526005825282600020336000528252826000208160ff1982541617905533336000600080516020620019488339815191528180a462000145565b01519150388062000112565b90601f1983169184600052866000209260005b81811062000277575098848798999a979697106200025c575b50505050811b01905562000124565b01519060f884600019921b161c19169055388080806200024d565b8a83015185559387019391880191880162000234565b84600052866000208280860160051c820192898710620002ce575b0160051c019086905b828110620002c1575050620000f6565b60008155018690620002b1565b92508192620002a8565b602285634e487b7160e01b6000525260246000fd5b90607f1690620000e4565b634e487b7160e01b600052604160045260246000fd5b015190503880620000b5565b90879350601f1983169185600052896000209260005b8b8282106200036a575050841162000351575b505050811b018155620000c7565b015160001983861b60f8161c1916905538808062000343565b8385015186558b9790950194938401930162000330565b90915083600052876000208680850160051c8201928a8610620003cd575b918991869594930160051c01915b828110620003bd5750506200009e565b60008155859450899101620003ad565b925081926200039f565b634e487b7160e01b600052602260045260246000fd5b94607f169462000087565b600080fdfe608060408181526004918236101561001657600080fd5b600092833560e01c91826301ffc9a714610cbb5750816306fdde0314610bc6578163095ea7b314610b9c57816318160ddd14610b7d57816323b872dd14610ab3578163248a9ca314610a885781632f2ff15d146109db578163313ce567146109bf57816336568abe1461092d57816339509351146108dd57816340c10f191461081657816370a08231146107df57816391d148541461079857816395d89b41146106955781639dc29fac1461056c578163a06d8fc7146102d4578163a217fddf146102b9578163a457c2d714610211578163a9059cbb146101e0578163d5391393146101a5578163d547741f14610162575063dd62ed3e1461011757600080fd5b3461015e578060031936011261015e5780602092610133610d5d565b61013b610d78565b6001600160a01b0391821683526001865283832091168252845220549051908152f35b5080fd5b919050346101a157806003193601126101a15761019e91356101996001610187610d78565b93838752600560205286200154610f77565b6110d5565b80f35b8280fd5b50503461015e578160031936011261015e57602090517f9f2df0fed2c77648de5860a4cc508cd0818c85b8b8a1ab4ceeef8d981c8956a68152f35b50503461015e578060031936011261015e5760209061020a610200610d5d565b602435903361116e565b5160018152f35b905082346102b657826003193601126102b65761022c610d5d565b918360243592338152600160205281812060018060a01b03861682526020522054908282106102655760208561020a85850387336112dc565b608490602086519162461bcd60e51b8352820152602560248201527f45524332303a2064656372656173656420616c6c6f77616e63652062656c6f77604482015264207a65726f60d81b6064820152fd5b80fd5b50503461015e578160031936011261015e5751908152602090f35b9050346101a15760209182600319360112610568576102f1610d5d565b9184805260058452818520338652845260ff8286205416156103a757507f9f2df0fed2c77648de5860a4cc508cd0818c85b8b8a1ab4ceeef8d981c8956a6808552600584528185206001600160a01b039093168086529284528185205490939060ff161561035d578480f35b8385526005815281852083865290528320805460ff1916600117905533917f2f8788117e7eff1d82e926ec794901d17c78024a50270940304540a733656f0d8480a4388080808480f35b83856103b233611405565b845190826103bf83611081565b6042835284830193606036863783511561055557603085538351906001918210156105425790607860218601536041915b8183116104d7575050506104955761049193869361047d9361046e6048946104459a519a8576020b1b1b2b9b9a1b7b73a3937b61d1030b1b1b7bab73a1604d1b8d978801528251928391603789019101610d0e565b8401917001034b99036b4b9b9b4b733903937b6329607d1b603784015251809386840190610d0e565b010360288101875201856110b3565b5162461bcd60e51b81529283928301610d31565b0390fd5b50505080606493519262461bcd60e51b845283015260248201527f537472696e67733a20686578206c656e67746820696e73756666696369656e746044820152fd5b909192600f8116601081101561052f576f181899199a1a9b1b9c1cb0b131b232b360811b901a61050785886113de565b53881c92801561051c576000190191906103f0565b634e487b7160e01b825260118952602482fd5b634e487b7160e01b835260328a52602483fd5b634e487b7160e01b815260328852602490fd5b634e487b7160e01b815260328752602490fd5b8380fd5b8391503461015e578260031936011261015e57610587610d5d565b60243590610593610d8e565b6001600160a01b0316918215610648578284528360205284842054908282106105fa57508184957fddf252ad1be2c89b69c2b068fc378daa952ba7f163c4a11628f55a4df523b3ef936020938688528785520381872055816002540360025551908152a380f35b608490602087519162461bcd60e51b8352820152602260248201527f45524332303a206275726e20616d6f756e7420657863656564732062616c616e604482015261636560f01b6064820152fd5b608490602086519162461bcd60e51b8352820152602160248201527f45524332303a206275726e2066726f6d20746865207a65726f206164647265736044820152607360f81b6064820152fd5b83833461015e578160031936011261015e57805191809380549160019083821c9282851694851561078e575b602095868610811461077b5785895290811561075757506001146106ff575b6106fb87876106f1828c03836110b3565b5191829182610d31565b0390f35b81529295507f8a35acfbc15ff81a39ae7d344fd709f28e8600b4aa8c65c6b64bfe7fe36bd19b5b82841061074457505050826106fb946106f1928201019486806106e0565b8054868501880152928601928101610726565b60ff19168887015250505050151560051b83010192506106f1826106fb86806106e0565b634e487b7160e01b845260228352602484fd5b93607f16936106c1565b9050346101a157816003193601126101a1578160209360ff926107b9610d78565b90358252600586528282206001600160a01b039091168252855220549151911615158152f35b50503461015e57602036600319011261015e5760209181906001600160a01b03610807610d5d565b16815280845220549051908152f35b919050346101a157806003193601126101a157610831610d5d565b906024359161083e610d8e565b6001600160a01b031692831561089b57506020827fddf252ad1be2c89b69c2b068fc378daa952ba7f163c4a11628f55a4df523b3ef92610881879560025461114b565b60025585855284835280852082815401905551908152a380f35b6020606492519162461bcd60e51b8352820152601f60248201527f45524332303a206d696e7420746f20746865207a65726f2061646472657373006044820152fd5b50503461015e578060031936011261015e5761020a602092610926610900610d5d565b338352600186528483206001600160a01b0382168452865291849020546024359061114b565b90336112dc565b8391503461015e578260031936011261015e57610948610d78565b90336001600160a01b03831603610964579061019e91356110d5565b608490602085519162461bcd60e51b8352820152602f60248201527f416363657373436f6e74726f6c3a2063616e206f6e6c792072656e6f756e636560448201526e103937b632b9903337b91039b2b63360891b6064820152fd5b50503461015e578160031936011261015e576020905160128152f35b9050346101a157816003193601126101a15735906109f7610d78565b908284526005602052610a0f60018286200154610f77565b828452600560209081528185206001600160a01b039093168086529290528084205460ff1615610a3d578380f35b82845260056020528084208285526020528320600160ff1982541617905533917f2f8788117e7eff1d82e926ec794901d17c78024a50270940304540a733656f0d8480a43880808380f35b9050346101a15760203660031901126101a15781602093600192358152600585522001549051908152f35b8391503461015e57606036600319011261015e57610acf610d5d565b610ad7610d78565b91846044359460018060a01b038416815260016020528181203382526020522054906000198203610b11575b60208661020a87878761116e565b848210610b3a5750918391610b2f6020969561020a950333836112dc565b919394819350610b03565b606490602087519162461bcd60e51b8352820152601d60248201527f45524332303a20696e73756666696369656e7420616c6c6f77616e63650000006044820152fd5b50503461015e578160031936011261015e576020906002549051908152f35b50503461015e578060031936011261015e5760209061020a610bbc610d5d565b60243590336112dc565b919050346101a157826003193601126101a157805191836003549060019082821c928281168015610cb1575b6020958686108214610c9e5750848852908115610c7c5750600114610c23575b6106fb86866106f1828b03836110b3565b929550600383527fc2575a0e9e593c00f959f8c92f12db2869c3395a3b0502d05e2516446f71f85b5b828410610c6957505050826106fb946106f1928201019438610c12565b8054868501880152928601928101610c4c565b60ff191687860152505050151560051b83010192506106f1826106fb38610c12565b634e487b7160e01b845260229052602483fd5b93607f1693610bf2565b8491346101a15760203660031901126101a1573563ffffffff60e01b81168091036101a15760209250637965db0b60e01b8114908115610cfd575b5015158152f35b6301ffc9a760e01b14905083610cf6565b60005b838110610d215750506000910152565b8181015183820152602001610d11565b60409160208252610d518151809281602086015260208686019101610d0e565b601f01601f1916010190565b600435906001600160a01b0382168203610d7357565b600080fd5b602435906001600160a01b0382168203610d7357565b3360009081527f15a28d26fa1bf736cf7edc9922607171ccb09c3c73b808e7772a3013e068a52260209081526040808320549092907f9f2df0fed2c77648de5860a4cc508cd0818c85b8b8a1ab4ceeef8d981c8956a69060ff1615610df35750505050565b610dfc33611405565b845191610e0883611081565b60428352848301936060368637835115610f635760308553835190600191821015610f635790607860218601536041915b818311610ef557505050610eb357610445938593610e9d93610e8e6048946104919951988576020b1b1b2b9b9a1b7b73a3937b61d1030b1b1b7bab73a1604d1b8b978801528251928391603789019101610d0e565b010360288101855201836110b3565b5162461bcd60e51b815291829160048301610d31565b60648486519062461bcd60e51b825280600483015260248201527f537472696e67733a20686578206c656e67746820696e73756666696369656e746044820152fd5b909192600f81166010811015610f4f576f181899199a1a9b1b9c1cb0b131b232b360811b901a610f2585886113de565b5360041c928015610f3b57600019019190610e39565b634e487b7160e01b82526011600452602482fd5b634e487b7160e01b83526032600452602483fd5b634e487b7160e01b81526032600452602490fd5b600081815260209060058252604092838220338352835260ff848320541615610fa05750505050565b610fa933611405565b845191610fb583611081565b60428352848301936060368637835115610f635760308553835190600191821015610f635790607860218601536041915b81831161103b57505050610eb357610445938593610e9d93610e8e6048946104919951988576020b1b1b2b9b9a1b7b73a3937b61d1030b1b1b7bab73a1604d1b8b978801528251928391603789019101610d0e565b909192600f81166010811015610f4f576f181899199a1a9b1b9c1cb0b131b232b360811b901a61106b85886113de565b5360041c928015610f3b57600019019190610fe6565b6080810190811067ffffffffffffffff82111761109d57604052565b634e487b7160e01b600052604160045260246000fd5b90601f8019910116810190811067ffffffffffffffff82111761109d57604052565b906000918083526005602052604083209160018060a01b03169182845260205260ff60408420541661110657505050565b8083526005602052604083208284526020526040832060ff1981541690557ff6391f5c32d9c69d2a47ea670b442974b53935d1edc7fd64eb21e047a839171b339380a4565b9190820180921161115857565b634e487b7160e01b600052601160045260246000fd5b6001600160a01b039081169182156112895716918215611238576000828152806020526040812054918083106111e457604082827fddf252ad1be2c89b69c2b068fc378daa952ba7f163c4a11628f55a4df523b3ef958760209652828652038282205586815220818154019055604051908152a3565b60405162461bcd60e51b815260206004820152602660248201527f45524332303a207472616e7366657220616d6f756e7420657863656564732062604482015265616c616e636560d01b6064820152608490fd5b60405162461bcd60e51b815260206004820152602360248201527f45524332303a207472616e7366657220746f20746865207a65726f206164647260448201526265737360e81b6064820152608490fd5b60405162461bcd60e51b815260206004820152602560248201527f45524332303a207472616e736665722066726f6d20746865207a65726f206164604482015264647265737360d81b6064820152608490fd5b6001600160a01b0390811691821561138d571691821561133d5760207f8c5be1e5ebec7d5bd14f71427d1e84f3dd0314c0f7b2291e5b200ac8c7c3b925918360005260018252604060002085600052825280604060002055604051908152a3565b60405162461bcd60e51b815260206004820152602260248201527f45524332303a20617070726f766520746f20746865207a65726f206164647265604482015261737360f01b6064820152608490fd5b60405162461bcd60e51b8152602060048201526024808201527f45524332303a20617070726f76652066726f6d20746865207a65726f206164646044820152637265737360e01b6064820152608490fd5b9081518110156113ef570160200190565b634e487b7160e01b600052603260045260246000fd5b604051906060820182811067ffffffffffffffff82111761109d57604052602a82526020820160403682378251156113ef576030905381516001908110156113ef57607860218401536029905b8082116114a65750506114625790565b606460405162461bcd60e51b815260206004820152602060248201527f537472696e67733a20686578206c656e67746820696e73756666696369656e746044820152fd5b9091600f811660108110156114ff576f181899199a1a9b1b9c1cb0b131b232b360811b901a6114d584866113de565b5360041c9180156114ea576000190190611452565b60246000634e487b7160e01b81526011600452fd5b60246000634e487b7160e01b81526032600452fdfea2646970667358221220af301fb3c1612df132641b50d3b368bdc7caa1bdaa5c10a4c46dff855c19c54a64736f6c634300081300332f8788117e7eff1d82e926ec794901d17c78024a50270940304540a733656f0d",
  "linkReferences": {},
  "deployedLinkReferences": {}
}