{
  "_format": "hh-sol-artifact-1",
  "contractName": "MaintenanceTracker",
  "sourceName": "contracts/MaintenanceTracker.sol",
  "abi": [
    {
      "inputs": [
        {
          "internalType": "address",
          "name": "_tokenContractAddress",
          "type": "address"
        },
        {
          "internalType": "uint256",
          "name": "_purchaseRatio",
          "type": "uint256"
        }
      ],
      "stateMutability": "nonpayable",
      "type": "constructor"
    },
    {
      "anonymous": false,
      "inputs": [
        {
          "indexed": true,
          "internalType": "address",
          "name": "owner",
          "type": "address"
        },
        {
          "indexed": true,
          "internalType": "address",
          "name": "approved",
          "type": "address"
        },
        {
          "indexed": true,
          "internalType": "uint256",
          "name": "tokenId",
          "type": "uint256"
        }
      ],
      "name": "Approval",
      "type": "event"
    },
    {
      "anonymous": false,
      "inputs": [
        {
          "indexed": true,
          "internalType": "address",
          "name": "owner",
          "type": "address"
        },
        {
          "indexed": true,
          "internalType": "address",
          "name": "operator",
          "type": "address"
        },
        {
          "indexed": false,
          "internalType": "bool",
          "name": "approved",
          "type": "bool"
        }
      ],
      "name": "ApprovalForAll",
      "type": "event"
    },
    {
      "anonymous": false,
      "inputs": [
        {
          "indexed": false,
          "internalType": "uint256",
          "name": "_fromTokenId",
          "type": "uint256"
        },
        {
          "indexed": false,
          "internalType": "uint256",
          "name": "_toTokenId",
          "type": "uint256"
        }
      ],
      "name": "BatchMetadataUpdate",
      "type": "event"
    },
    {
      "anonymous": false,
      "inputs": [
        {
          "indexed": false,
          "internalType": "uint256",
          "name": "amount",
          "type": "uint256"
        }
      ],
      "name": "FundsWithdrawn",
      "type": "event"
    },
    {
      "anonymous": false,
      "inputs": [
        {
          "indexed": false,
          "internalType": "uint256",
          "name": "newTokenId",
          "type": "uint256"
        }
      ],
      "name": "MaintenanceTaskOpened",
      "type": "event"
    },
    {
      "anonymous": false,
      "inputs": [
        {
          "indexed": false,
          "internalType": "uint256",
          "name": "_tokenId",
          "type": "uint256"
        }
      ],
      "name": "MetadataUpdate",
      "type": "event"
    },
    {
      "anonymous": false,
      "inputs": [
        {
          "indexed": true,
          "internalType": "address",
          "name": "previousOwner",
          "type": "address"
        },
        {
          "indexed": true,
          "internalType": "address",
          "name": "newOwner",
          "type": "address"
        }
      ],
      "name": "OwnershipTransferred",
      "type": "event"
    },
    {
      "anonymous": false,
      "inputs": [
        {
          "indexed": false,
          "internalType": "uint256",
          "name": "tokenId",
          "type": "uint256"
        },
        {
          "indexed": false,
          "internalType": "address",
          "name": "certifier",
          "type": "address"
        }
      ],
      "name": "TaskCertified",
      "type": "event"
    },
    {
      "anonymous": false,
      "inputs": [
        {
          "indexed": false,
          "internalType": "uint256",
          "name": "tokenId",
          "type": "uint256"
        },
        {
          "indexed": false,
          "internalType": "uint256",
          "name": "cost",
          "type": "uint256"
        }
      ],
      "name": "TaskCompletedPaid",
      "type": "event"
    },
    {
      "anonymous": false,
      "inputs": [
        {
          "indexed": true,
          "internalType": "address",
          "name": "from",
          "type": "address"
        },
        {
          "indexed": true,
          "internalType": "address",
          "name": "to",
          "type": "address"
        },
        {
          "indexed": true,
          "internalType": "uint256",
          "name": "tokenId",
          "type": "uint256"
        }
      ],
      "name": "Transfer",
      "type": "event"
    },
    {
      "inputs": [
        {
          "internalType": "address",
          "name": "to",
          "type": "address"
        },
        {
          "internalType": "uint256",
          "name": "tokenId",
          "type": "uint256"
        }
      ],
      "name": "approve",
      "outputs": [],
      "stateMutability": "nonpayable",
      "type": "function"
    },
    {
      "inputs": [
        {
          "internalType": "address",
          "name": "owner",
          "type": "address"
        }
      ],
      "name": "balanceOf",
      "outputs": [
        {
          "internalType": "uint256",
          "name": "",
          "type": "uint256"
        }
      ],
      "stateMutability": "view",
      "type": "function"
    },
    {
      "inputs": [],
      "name": "buyTokens",
      "outputs": [],
      "stateMutability": "payable",
      "type": "function"
    },
    {
      "inputs": [
        {
          "internalType": "uint256",
          "name": "tokenId",
          "type": "uint256"
        }
      ],
      "name": "certifyTask",
      "outputs": [],
      "stateMutability": "nonpayable",
      "type": "function"
    },
    {
      "inputs": [
        {
          "internalType": "uint256",
          "name": "tokenId",
          "type": "uint256"
        }
      ],
      "name": "completeTask",
      "outputs": [],
      "stateMutability": "nonpayable",
      "type": "function"
    },
    {
      "inputs": [
        {
          "internalType": "uint256",
          "name": "tokenId",
          "type": "uint256"
        }
      ],
      "name": "getApproved",
      "outputs": [
        {
          "internalType": "address",
          "name": "",
          "type": "address"
        }
      ],
      "stateMutability": "view",
      "type": "function"
    },
    {
      "inputs": [
        {
          "internalType": "address",
          "name": "owner",
          "type": "address"
        },
        {
          "internalType": "address",
          "name": "operator",
          "type": "address"
        }
      ],
      "name": "isApprovedForAll",
      "outputs": [
        {
          "internalType": "bool",
          "name": "",
          "type": "bool"
        }
      ],
      "stateMutability": "view",
      "type": "function"
    },
    {
      "inputs": [
        {
          "internalType": "uint256",
          "name": "",
          "type": "uint256"
        }
      ],
      "name": "maintenanceTasks",
      "outputs": [
        {
          "internalType": "string",
          "name": "clientName",
          "type": "string"
        },
        {
          "internalType": "string",
          "name": "systemName",
          "type": "string"
        },
        {
          "internalType": "string",
          "name": "maintenanceName",
          "type": "string"
        },
        {
          "internalType": "string",
          "name": "systemCycles",
          "type": "string"
        },
        {
          "internalType": "string",
          "name": "estimatedTime",
          "type": "string"
        },
        {
          "internalType": "string",
          "name": "startTime",
          "type": "string"
        },
        {
          "internalType": "uint256",
          "name": "cost",
          "type": "uint256"
        },
        {
          "internalType": "enum MaintenanceTracker.TaskStatus",
          "name": "generalStatus",
          "type": "uint8"
        },
        {
          "internalType": "enum MaintenanceTracker.ExecutionStatus",
          "name": "executionStatus",
          "type": "uint8"
        },
        {
          "internalType": "address",
          "name": "repairman",
          "type": "address"
        },
        {
          "internalType": "address",
          "name": "qualityInspector",
          "type": "address"
        }
      ],
      "stateMutability": "view",
      "type": "function"
    },
    {
      "inputs": [
        {
          "internalType": "address",
          "name": "to",
          "type": "address"
        },
        {
          "internalType": "uint256",
          "name": "tokenId",
          "type": "uint256"
        },
        {
          "internalType": "string",
          "name": "_ipfsHash",
          "type": "string"
        },
        {
          "internalType": "string",
          "name": "_nftImageIpfsHash",
          "type": "string"
        }
      ],
      "name": "mint",
      "outputs": [],
      "stateMutability": "nonpayable",
      "type": "function"
    },
    {
      "inputs": [],
      "name": "name",
      "outputs": [
        {
          "internalType": "string",
          "name": "",
          "type": "string"
        }
      ],
      "stateMutability": "view",
      "type": "function"
    },
    {
      "inputs": [
        {
          "internalType": "string",
          "name": "_clientName",
          "type": "string"
        },
        {
          "internalType": "string",
          "name": "_systemName",
          "type": "string"
        },
        {
          "internalType": "string",
          "name": "_maintenanceName",
          "type": "string"
        },
        {
          "internalType": "string",
          "name": "_systemCycles",
          "type": "string"
        },
        {
          "internalType": "string",
          "name": "_estimatedTime",
          "type": "string"
        },
        {
          "internalType": "string",
          "name": "_startTime",
          "type": "string"
        },
        {
          "internalType": "uint256",
          "name": "_cost",
          "type": "uint256"
        },
        {
          "internalType": "address",
          "name": "_repairman",
          "type": "address"
        },
        {
          "internalType": "address",
          "name": "_qualityInspector",
          "type": "address"
        }
      ],
      "name": "openMaintenanceTask",
      "outputs": [
        {
          "internalType": "uint256",
          "name": "",
          "type": "uint256"
        }
      ],
      "stateMutability": "nonpayable",
      "type": "function"
    },
    {
      "inputs": [],
      "name": "owner",
      "outputs": [
        {
          "internalType": "address",
          "name": "",
          "type": "address"
        }
      ],
      "stateMutability": "view",
      "type": "function"
    },
    {
      "inputs": [
        {
          "internalType": "uint256",
          "name": "tokenId",
          "type": "uint256"
        }
      ],
      "name": "ownerOf",
      "outputs": [
        {
          "internalType": "address",
          "name": "",
          "type": "address"
        }
      ],
      "stateMutability": "view",
      "type": "function"
    },
    {
      "inputs": [
        {
          "internalType": "uint256",
          "name": "tokenId",
          "type": "uint256"
        },
        {
          "internalType": "uint256",
          "name": "_amount",
          "type": "uint256"
        },
        {
          "internalType": "string",
          "name": "_ipfsHash",
          "type": "string"
        },
        {
          "internalType": "string",
          "name": "_nftImageIpfsHash",
          "type": "string"
        }
      ],
      "name": "payForTask",
      "outputs": [],
      "stateMutability": "nonpayable",
      "type": "function"
    },
    {
      "inputs": [],
      "name": "purchaseRatio",
      "outputs": [
        {
          "internalType": "uint256",
          "name": "",
          "type": "uint256"
        }
      ],
      "stateMutability": "view",
      "type": "function"
    },
    {
      "inputs": [],
      "name": "renounceOwnership",
      "outputs": [],
      "stateMutability": "nonpayable",
      "type": "function"
    },
    {
      "inputs": [
        {
          "internalType": "address",
          "name": "from",
          "type": "address"
        },
        {
          "internalType": "address",
          "name": "to",
          "type": "address"
        },
        {
          "internalType": "uint256",
          "name": "tokenId",
          "type": "uint256"
        }
      ],
      "name": "safeTransferFrom",
      "outputs": [],
      "stateMutability": "nonpayable",
      "type": "function"
    },
    {
      "inputs": [
        {
          "internalType": "address",
          "name": "from",
          "type": "address"
        },
        {
          "internalType": "address",
          "name": "to",
          "type": "address"
        },
        {
          "internalType": "uint256",
          "name": "tokenId",
          "type": "uint256"
        },
        {
          "internalType": "bytes",
          "name": "data",
          "type": "bytes"
        }
      ],
      "name": "safeTransferFrom",
      "outputs": [],
      "stateMutability": "nonpayable",
      "type": "function"
    },
    {
      "inputs": [
        {
          "internalType": "address",
          "name": "operator",
          "type": "address"
        },
        {
          "internalType": "bool",
          "name": "approved",
          "type": "bool"
        }
      ],
      "name": "setApprovalForAll",
      "outputs": [],
      "stateMutability": "nonpayable",
      "type": "function"
    },
    {
      "inputs": [
        {
          "internalType": "bytes4",
          "name": "interfaceId",
          "type": "bytes4"
        }
      ],
      "name": "supportsInterface",
      "outputs": [
        {
          "internalType": "bool",
          "name": "",
          "type": "bool"
        }
      ],
      "stateMutability": "view",
      "type": "function"
    },
    {
      "inputs": [],
      "name": "symbol",
      "outputs": [
        {
          "internalType": "string",
          "name": "",
          "type": "string"
        }
      ],
      "stateMutability": "view",
      "type": "function"
    },
    {
      "inputs": [],
      "name": "tokenContract",
      "outputs": [
        {
          "internalType": "contract MaintenanceToken",
          "name": "",
          "type": "address"
        }
      ],
      "stateMutability": "view",
      "type": "function"
    },
    {
      "inputs": [],
      "name": "tokenIdCounter",
      "outputs": [
        {
          "internalType": "uint256",
          "name": "_value",
          "type": "uint256"
        }
      ],
      "stateMutability": "view",
      "type": "function"
    },
    {
      "inputs": [
        {
          "internalType": "uint256",
          "name": "tokenId",
          "type": "uint256"
        }
      ],
      "name": "tokenURI",
      "outputs": [
        {
          "internalType": "string",
          "name": "",
          "type": "string"
        }
      ],
      "stateMutability": "view",
      "type": "function"
    },
    {
      "inputs": [
        {
          "internalType": "address",
          "name": "from",
          "type": "address"
        },
        {
          "internalType": "address",
          "name": "to",
          "type": "address"
        },
        {
          "internalType": "uint256",
          "name": "tokenId",
          "type": "uint256"
        }
      ],
      "name": "transferFrom",
      "outputs": [],
      "stateMutability": "nonpayable",
      "type": "function"
    },
    {
      "inputs": [
        {
          "internalType": "address",
          "name": "newOwner",
          "type": "address"
        }
      ],
      "name": "transferOwnership",
      "outputs": [],
      "stateMutability": "nonpayable",
      "type": "function"
    },
    {
      "inputs": [],
      "name": "treasuryBalance",
      "outputs": [
        {
          "internalType": "uint256",
          "name": "",
          "type": "uint256"
        }
      ],
      "stateMutability": "view",
      "type": "function"
    },
    {
      "inputs": [],
      "name": "withdrawTreasuryEthAndBurn",
      "outputs": [],
      "stateMutability": "nonpayable",
      "type": "function"
    }
  ],
  "bytecode": "0x608034620003ae576001600160401b0390601f90601f1962003d4b388190038481018316840191908683118584101762000398578085926040948552833981010312620003ae5781516001600160a01b03948582169391849003620003ae57602080920151946200006f620003b3565b92601284527126b0b4b73a32b730b731b2aa3930b1b5b2b960711b8185015262000098620003b3565b906002825261135560f21b8183015284519584871162000398576000968754966001978881811c911680156200038d575b85821014620003795790818784931162000326575b508490878311600114620002c5578a92620002b9575b5050600019600383901b1c191690871b1787555b8251948511620002a55785548681811c911680156200029a575b8382101462000286579081858796959493116200022d575b5081938511600114620001c85750508592620001bc575b5050600019600383901b1c191690821b1790555b60075460018060a01b03199133838316176007557f8be0079c531659141344cd1fd0a4f28419497f9722a3daafe3b4186f6b6457e0604051963393169180a3600b541617600b556009556139779081620003d48239f35b01519050388062000151565b869593929193168588528388209388905b828210620002135750508411620001f9575b505050811b01905562000165565b015160001960f88460031b161c19169055388080620001eb565b8484015186558897909501949384019390810190620001d9565b9091929394508688528288208580880160051c8201928589106200027c575b9188978a9297969594930160051c01915b8281106200026d5750506200013a565b8a81558897508991016200025d565b925081926200024c565b634e487b7160e01b88526022600452602488fd5b90607f169062000122565b634e487b7160e01b87526041600452602487fd5b015190503880620000f4565b90848a9416918b8052868c20928c5b888282106200030f5750508411620002f5575b505050811b01875562000108565b015160001960f88460031b161c19169055388080620002e7565b8385015186558d97909501949384019301620002d4565b909150898052848a208780850160051c8201928786106200036f575b918b91869594930160051c01915b82811062000360575050620000de565b8c81558594508b910162000350565b9250819262000342565b634e487b7160e01b8a52602260045260248afd5b90607f1690620000c9565b634e487b7160e01b600052604160045260246000fd5b600080fd5b60408051919082016001600160401b03811183821017620003985760405256fe608080604052600436101561001357600080fd5b600090813560e01c90816301ffc9a714612c435750806306fdde0314612b9f578063081812fc14612b80578063095ea7b314612a0b57806323b872dd146129e65780632fb102cf146120e0578063313dab20146120bd57806342842e0e1461208a5780634ce253fa14611f535780634fd845491461163557806355a373d61461160c5780636352211e146115db57806370a0823114611545578063715018a6146114e85780638bf23c6d146108a15780638da5cb5b1461087857806390c882c51461079157806395cadc471461077357806395d89b411461069057806398bdf6f5146106725780639c2d758a146105cc578063a22cb465146104f6578063b88d4fde14610469578063c87b56dd146103f2578063d0febe4c14610355578063e1e2955814610271578063e985e9c51461021d5763f2fde38b1461015557600080fd5b3461021a57602036600319011261021a5761016e612d12565b610176612f84565b6001600160a01b039081169081156101c657600754826001600160601b0360a01b821617600755167f8be0079c531659141344cd1fd0a4f28419497f9722a3daafe3b4186f6b6457e0600080a380f35b60405162461bcd60e51b815260206004820152602660248201527f4f776e61626c653a206e6577206f776e657220697320746865207a65726f206160448201526564647265737360d01b6064820152608490fd5b80fd5b503461021a57604036600319011261021a57610237612d12565b6040610241612d2d565b9260018060a01b0380931681526005602052209116600052602052602060ff604060002054166040519015158152f35b503461021a57602036600319011261021a57600435808252600a602052604082206007015460101c6001600160a01b0316330361031c57808252600a6020526102cd60ff6007604085200154166102c781612f64565b156134e2565b604080518281523360208201527f6b3c51c278cd3ae214e6d755eaf53974e7b1bab819965f9cad93da6fca69b17a9190a18152600a60205260408120600701805461ff00191661010017905580f35b60405162461bcd60e51b81526020600482015260116024820152702737ba103a3432903932b830b4b936b0b760791b6044820152606490fd5b508060031936011261021a5760018060a01b03600b54166009548034029034820414341517156103dc578183923b156103d8576040516340c10f1960e01b8152336004820152602481019290925282908290604490829084905af180156103cd576103bd5750f35b6103c690612daa565b61021a5780f35b6040513d84823e3d90fd5b5050fd5b634e487b7160e01b600052601160045260246000fd5b503461021a57602036600319011261021a5760043560008181526002602052604090205461042a906001600160a01b03161515612fdc565b60005260066020526104656104426040600020612ebe565b600060405161045081612dbd565b52604051918291602083526020830190612ced565b0390f35b503461021a57608036600319011261021a57610483612d12565b61048b612d2d565b90606435906044356001600160401b0383116104f257366023840112156104f2576104ef936104c76104ea943690602481600401359101612e2f565b926104da6104d58433613162565b613089565b6104e583838361322a565b613457565b61313e565b80f35b8480fd5b503461021a57604036600319011261021a57610510612d12565b602435908115158092036105c8576001600160a01b0316903382146105835733835260056020526040832082600052602052604060002060ff1981541660ff83161790556040519081527f17307eab39ab6107e8899845ad3d59bd9653f200f220920489ca2b5937696c3160203392a380f35b60405162461bcd60e51b815260206004820152601960248201527f4552433732313a20617070726f766520746f2063616c6c6572000000000000006044820152606490fd5b8280fd5b503461021a578060031936011261021a576105e5612f84565b600b5481906001600160a01b03166105fb6138c9565b813b156103d857604051632770a7eb60e21b8152306004820152602481019190915291908290604490829084905af180156103cd57610663575b50808080804781811561065a575b3390f11561064e5780f35b604051903d90823e3d90fd5b506108fc610643565b61066c90612daa565b38610635565b503461021a578060031936011261021a576020600854604051908152f35b503461021a578060031936011261021a57604051908060018054916106b483612e84565b8086529282811690811561074957506001146106ef575b610465856106db81870382612df3565b604051918291602083526020830190612ced565b92508083527fb10e2d527612073b26eecdfd717e6a320cf44b4afac2b0732d9fcbe2b7fa0cf65b8284106107315750505081016020016106db826104656106cb565b80546020858701810191909152909301928101610716565b869550610465969350602092506106db94915060ff191682840152151560051b82010192936106cb565b503461021a578060031936011261021a576020600954604051908152f35b503461021a57602036600319011261021a57600435808252600a60205260408220600801546001600160a01b0316330361083357808252600a6020526107e460ff6007604085200154166102c781612f64565b604080518281523360208201527f6b3c51c278cd3ae214e6d755eaf53974e7b1bab819965f9cad93da6fca69b17a9190a18152600a60205260408120600701805461ffff191661020117905580f35b60405162461bcd60e51b815260206004820152601960248201527f4e6f7420746865207175616c69747920696e73706563746f72000000000000006044820152606490fd5b503461021a578060031936011261021a576007546040516001600160a01b039091168152602090f35b503461021a57608036600319011261021a576001600160401b03906044358281116111cc576108d4903690600401612e66565b6064358381116105c8576108ec903690600401612e66565b6004358352600a602052600160ff60076040862001541661090c81612f64565b03611498578151156114535780511561140e576004358352600a60205260066040842001549182602435106113d257600b54604051636eb1769f60e11b815233600482015230602482015290602090829060449082906001600160a01b03165afa9081156113c7579084918691611392575b501061134d576004358452600a60205260408420600701805460ff191660021790556109a8612f84565b604051916109b583612dbd565b8483523315611309576102b5610cb89261102192610a886104ea611026976109fd6109f7600435600052600260205260018060a01b0360406000205416151590565b15613525565b600435600090815260026020526040902054610a23906001600160a01b031615156109f7565b338b52600360205260408b20600181540190556004358b52600260205260408b20336001600160601b0360a01b825416179055600435338c7fddf252ad1be2c89b69c2b068fc378daa952ba7f163c4a11628f55a4df523b3ef8180a46004353361333b565b6004358852600a6020526040882060405190610aa382612d78565b610aac81612ebe565b8252610aba60018201612ebe565b9260208301938452610ace60028301612ebe565b9360408401948552610ae260038401612ebe565b9060608501918252610af660048501612ebe565b60808601908152610b0960058601612ebe565b9260a08701938452600686015460c0880152610b95610b85600788015460ff8116610b3381612f64565b60e08b015260ff8160081c16610b4881612f64565b6101008b015260101c6001600160a01b039081166101208b01819052600890990154166101408a0190815298519451995192519551935197613723565b97516001600160a01b0316613723565b9760ee6040519d8e809c7f7b226e616d65223a20224d61696e74656e616e6365204365727469666963617460208301526219488b60ea1b60408301527f226465736372697074696f6e223a202254686973206469676974616c2063657260438301527f7469666963617465207365727665732061732061757468656e7469632065766960638301527f64656e636520746861742074686520737065636966696564206d61696e74656e60838301527f616e6365206f7065726174696f6e73207765726520706572666f726d6564207560a38301527f6e64657220737065636966696320636f6e646974696f6e73222c00000000000060c3830152701132bc3a32b93730b62fbab936111d101160791b60dd83015260208151948593019101612cca565b8a019561088b60f21b968760ee820152691134b6b0b3b2911d101160b11b60f0820152610cef82518093602060fa85019101612cca565b01918660fa8401526e2261747472696275746573223a205b60881b60fc8401527f7b2274726169745f74797065223a2022636c69656e744e616d65222c0000000061010b84015269113b30b63ab2911d101160b11b9283610127820152855190610d63826101319860208a85019101612cca565b019562089f4b60ea1b8781809998819901527f7b2274726169745f74797065223a202273797374656d4e616d65222c0000000061013482015285610150820152845190610dba8261015a9760208985019101612cca565b01938401527f7b2274726169745f74797065223a20226d61696e74656e616e63654e616d652261015d84015285600b60fa1b938461017d8201528561017e820152835190610e12826101889660208885019101612cca565b01928301527f7b22646973706c61795f74797065223a2022626f6f73745f6e756d626572222c61018b8301527f2274726169745f74797065223a202273797374656d4379636c6573222c0000006101ab830152680113b30b63ab2911d160bd1b91826101c8820152815190610e91826101d19460208685019101612cca565b01611f4b60f21b8092820152771ec8991a5cdc1b185e57dd1e5c19488e880899185d19488b60421b92836101d38301527f2274726169745f74797065223a2022312e20737461727454696d65222c0000006101eb830152610208820152855190610f05826102119860208a85019101612cca565b01948501526102138401527f2274726169745f74797065223a2022322e20657374696d6174656454696d652261022b84015261024b83015261024c820152845190610f5a826102569760208985019101612cca565b01938401527f7b2274726169745f74797065223a20227265706169726d616e222c00000000006102598401526b044ecc2d8eaca4474404460f60a31b9283610274820152845190610fb5826102809760208985019101612cca565b01938401527f7b2274726169745f74797065223a20227175616c697479496e73706563746f726102838401526102a38301526102a5820152815190611004826102b19460208685019101612cca565b019063227d5d7d60e01b9082015203610295810184520182612df3565b613571565b9261107a603d60405180967f646174613a6170706c69636174696f6e2f6a736f6e3b6261736536342c000000602083015261106a8151809260208686019101612cca565b810103601d810187520185612df3565b6004356000908152600260205260409020546001600160a01b0316156112ad576004358352600660205260408320908451908111611299576110bc8254612e84565b601f8111611254575b506020601f82116001146111ee57849582939495926111e3575b50508160011b916000199060031b1c19161790555b7ff8e1a15aba9398e019f0b49df1a4fde98ee17ae345cb5f6b5e2c27f5033e8ce760206040516004358152a1600b546040516323b872dd60e01b815233600482015230602482015260448101839052906020908290606490829087906001600160a01b03165af180156111d85761119c575b5060407f2f11a853e9f2a07e39e4abb90d08ae81c24efb59fe273a2dcce22e971c4134399181519060043582526020820152a180f35b6020813d6020116111d0575b816111b560209383612df3565b810103126105c85751801515036111cc5738611166565b5080fd5b3d91506111a8565b6040513d85823e3d90fd5b0151905038806110df565b8285526020852090855b601f198416811061123c575060019394959683601f19811610611223575b505050811b0190556110f4565b015160001960f88460031b161c19169055388080611216565b9091602060018192858b0151815501930191016111f8565b82855260208520601f830160051c8101916020841061128f575b601f0160051c01905b81811061128457506110c5565b858155600101611277565b909150819061126e565b634e487b7160e01b84526041600452602484fd5b60405162461bcd60e51b815260206004820152602e60248201527f45524337323155524953746f726167653a2055524920736574206f66206e6f6e60448201526d32bc34b9ba32b73a103a37b5b2b760911b6064820152608490fd5b606460405162461bcd60e51b815260206004820152602060248201527f4552433732313a206d696e7420746f20746865207a65726f20616464726573736044820152fd5b60405162461bcd60e51b815260206004820152601760248201527f546f6b656e20617070726f76616c2072657175697265640000000000000000006044820152606490fd5b9150506020813d6020116113bf575b816113ae60209383612df3565b810103126104f2578390513861097e565b3d91506113a1565b6040513d87823e3d90fd5b60405162461bcd60e51b8152602060048201526014602482015273125b9cdd59999a58da595b9d081c185e5b595b9d60621b6044820152606490fd5b60405162461bcd60e51b815260206004820152601a60248201527f4e465420496d61676520495046532068617368206e65656465640000000000006044820152606490fd5b60405162461bcd60e51b815260206004820152601960248201527f4d6574616461746120495046532068617368206e6565646564000000000000006044820152606490fd5b60405162461bcd60e51b815260206004820152602260248201527f5461736b206e6f7420636f6d706c65746564206f7220616c72656164792070616044820152611a5960f21b6064820152608490fd5b503461021a578060031936011261021a57611501612f84565b600780546001600160a01b0319811690915581906001600160a01b03167f8be0079c531659141344cd1fd0a4f28419497f9722a3daafe3b4186f6b6457e08280a380f35b503461021a57602036600319011261021a576001600160a01b03611567612d12565b168015611584578160409160209352600383522054604051908152f35b60405162461bcd60e51b815260206004820152602960248201527f4552433732313a2061646472657373207a65726f206973206e6f7420612076616044820152683634b21037bbb732b960b91b6064820152608490fd5b503461021a57602036600319011261021a5760206115fa600435613028565b6040516001600160a01b039091168152f35b503461021a578060031936011261021a57600b546040516001600160a01b039091168152602090f35b503461021a5761012036600319011261021a576004356001600160401b0381116111cc57611667903690600401612e66565b6024356001600160401b0381116105c857611686903690600401612e66565b906044356001600160401b038111611f4f576116a6903690600401612e66565b6064356001600160401b0381116104f2576116c5903690600401612e66565b6084356001600160401b038111611f4b576116e4903690600401612e66565b60a4356001600160401b038111611f4757611703903690600401612e66565b60e435929091906001600160a01b0384168403611f435761010435946001600160a01b0386168603611f3f5760085497600189016008556040519761174789612d78565b8852602088015260408701526060860152608085015260a084015260c43560c08401528460e08401528461010084015260018060a01b031661012083015260018060a01b0316610140820152818352600a6020526040832081518051906001600160401b038211611b425781906117be8454612e84565b601f8111611ef2575b50602090601f8311600114611e89578792611e7e575b50508160011b916000199060031b1c19161781555b60208201518051906001600160401b038211611b425781906118176001850154612e84565b601f8111611e2e575b50602090601f8311600114611dbf578792611db4575b50508160011b916000199060031b1c19161760018201555b60408201518051906001600160401b038211611b425781906118736002850154612e84565b601f8111611d64575b50602090601f8311600114611cf5578792611cea575b50508160011b916000199060031b1c19161760028201555b60608201518051906001600160401b038211611b425781906118cf6003850154612e84565b601f8111611c9a575b50602090601f8311600114611c2b578792611c20575b50508160011b916000199060031b1c19161760038201555b60808201518051906001600160401b038211611b4257819061192b6004850154612e84565b601f8111611bd0575b50602090601f8311600114611b61578792611b56575b50508160011b916000199060031b1c19161760048201555b60a08201519081516001600160401b038111611b42576119856005830154612e84565b601f8111611afe575b5060209586906001601f841114611a92579060089483611a87575b50508160011b916000199060031b1c19161760058201555b60c083015160068201556007810160e08401516119dd81612f64565b6119e681612f64565b815461ff00610100870151916119fb83612f64565b611a0483612f64565b60ff62010000600160b01b036101208a015160101b1694169069ffffffffffffffffffff60b01b161791861b1617179055019061014060018060a01b03910151166001600160601b0360a01b8254161790557fead63b5d79f90d34ee1ebf407c200a42403989e85c19a317f1fdbadfe252beae82604051838152a1604051908152f35b0151905038806119a9565b919293601f198416600586018452888420935b818110611ae75750916001939185600897969410611ace575b505050811b0160058201556119c1565b015160001960f88460031b161c19169055388080611abe565b929389600181928786015181550195019301611aa5565b60058301875260208720601f830160051c810160208410611b3b575b601f830160051c82018110611b3057505061198e565b888155600101611b1a565b5080611b1a565b634e487b7160e01b86526041600452602486fd5b01519050388061194a565b9250600484018752602087209087935b601f1984168510611bb5576001945083601f19811610611b9c575b505050811b016004820155611962565b015160001960f88460031b161c19169055388080611b8c565b81810151835560209485019460019093019290910190611b71565b90915060048401875260208720601f840160051c810160208510611c19575b90849392915b601f830160051c82018110611c0b575050611934565b898155859450600101611bf5565b5080611bef565b0151905038806118ee565b9250600384018752602087209087935b601f1984168510611c7f576001945083601f19811610611c66575b505050811b016003820155611906565b015160001960f88460031b161c19169055388080611c56565b81810151835560209485019460019093019290910190611c3b565b90915060038401875260208720601f840160051c810160208510611ce3575b90849392915b601f830160051c82018110611cd55750506118d8565b898155859450600101611cbf565b5080611cb9565b015190503880611892565b9250600284018752602087209087935b601f1984168510611d49576001945083601f19811610611d30575b505050811b0160028201556118aa565b015160001960f88460031b161c19169055388080611d20565b81810151835560209485019460019093019290910190611d05565b90915060028401875260208720601f840160051c810160208510611dad575b90849392915b601f830160051c82018110611d9f57505061187c565b898155859450600101611d89565b5080611d83565b015190503880611836565b9250600184018752602087209087935b601f1984168510611e13576001945083601f19811610611dfa575b505050811b01600182015561184e565b015160001960f88460031b161c19169055388080611dea565b81810151835560209485019460019093019290910190611dcf565b90915060018401875260208720601f840160051c810160208510611e77575b90849392915b601f830160051c82018110611e69575050611820565b898155859450600101611e53565b5080611e4d565b0151905038806117dd565b9250838752602087209087935b601f1984168510611ed7576001945083601f19811610611ebe575b505050811b0181556117f2565b015160001960f88460031b161c19169055388080611eb1565b81810151835560209485019460019093019290910190611e96565b90915083875260208720601f840160051c810160208510611f38575b90849392915b601f830160051c82018110611f2a5750506117c7565b898155859450600101611f14565b5080611f0e565b8880fd5b8780fd5b8680fd5b8580fd5b8380fd5b503461021a57602036600319011261021a576004358152600a60205260409020611f7c81612ebe565b611f8860018301612ebe565b91611f9560028201612ebe565b611fa160038301612ebe565b91611fae60048201612ebe565b92611fbb60058301612ebe565b9060068301549460078401549260ff8416918460081c60ff1693600160a01b6001900360088198015416976040519b8c9b8c6101608091528d01611ffe91612ced565b8c810360208e015261200f91612ced565b8b810360408d015261202091612ced565b8a810360608c015261203191612ced565b89810360808b015261204291612ced565b88810360a08a015261205391612ced565b9560c088015261206281612f64565b60e087015261207081612f64565b61010086015260101c166101208401526101408301520390f35b503461021a576104ef6104ea61209f36612d43565b90604051926120ad84612dbd565b8684526104da6104d58433613162565b503461021a578060031936011261021a5760206120d86138c9565b604051908152f35b503461021a57608036600319011261021a576120fa612d12565b6001600160401b039190602435604435848111611f4f5761211f903690600401612e66565b6064358581116104f257612137903690600401612e66565b90612140612f84565b60405161214c81612dbd565b8581526001600160a01b038581169390841561130957600086815260026020526040902054612184906001600160a01b031615613525565b6000868152600260205260409020546121a6906001600160a01b031615613525565b848852602096879360038552878060408c20986001998a8154019055818d526002885260408d20816001600160601b0360a01b8254161790558c7fddf252ad1be2c89b69c2b068fc378daa952ba7f163c4a11628f55a4df523b3ef8180a461220d9261333b565b6122169061313e565b858852600a83528260408920926040519261223084612d78565b61223985612ebe565b8452612246858901612ebe565b84840190815261225860028701612ebe565b604086019081529561226c60038201612ebe565b606087019081529261228060048301612ebe565b608088019081529061229460058401612ebe565b9060a08901918252600684015460c08a01528080600786015460ff81166122ba81612f64565b60e08d01528060081c60ff166122cf81612f64565b6101008d015260101c1694856101208c01526008015416986101408101998a5251945199519551915192519361230490613723565b98511661231090613723565b9887806040519d8e9d8e017f7b226e616d65223a20224d61696e74656e616e6365204365727469666963617490528d6219488b60ea1b60408201526043017f226465736372697074696f6e223a202254686973206469676974616c2063657290528d606381017f7469666963617465207365727665732061732061757468656e7469632065766990526083017f64656e636520746861742074686520737065636966696564206d61696e74656e90528d60a381017f616e6365206f7065726174696f6e73207765726520706572666f726d65642075905260c3017f6e64657220737065636966696320636f6e646974696f6e73222c00000000000090528d701132bc3a32b93730b62fbab936111d101160791b9060dd01528d81519260ee84920192019161243d92612cca565b8c019761088b60f21b988960ee820152691134b6b0b3b2911d101160b11b60f0820152815191828460fa840192019161247592612cca565b01928860fa8501526e2261747472696275746573223a205b60881b60fc85015261010b84017f7b2274726169745f74797065223a2022636c69656e744e616d65222c00000000905269113b30b63ab2911d101160b11b93846101278201528751906101319882858b84019201916124eb92612cca565b019662089f4b60ea1b98898981809b948195015261013481017f7b2274726169745f74797065223a202273797374656d4e616d65222c0000000090528761015082015286519061015a9782888a840192019161254692612cca565b019586015261015d85017f7b2274726169745f74797065223a20226d61696e74656e616e63654e616d65229052600b60fa1b948561017d8201528661017e820152815191826101889687840192019161259e92612cca565b01928301527f7b22646973706c61795f74797065223a2022626f6f73745f6e756d626572222c61018b8301527f2274726169745f74797065223a202273797374656d4379636c6573222c0000006101ab830152680113b30b63ab2911d160bd1b6101c88301819052815190926101d19261261f908390858401908f01612cca565b01611f4b60f21b8092820152771ec8991a5cdc1b185e57dd1e5c19488e880899185d19488b60421b92836101d38301526101eb82017f2274726169745f74797065223a2022312e20737461727454696d65222c000000905261020882015285519061021196828d89840192019161269592612cca565b019485015261021384015261022b83017f2274726169745f74797065223a2022322e20657374696d6174656454696d6522905261024b83015261024c82015281519182610256978884019201916126eb92612cca565b019384015261025983017f7b2274726169745f74797065223a20227265706169726d616e222c000000000090526b044ecc2d8eaca4474404460f60a31b928361027482015284519061028095828d88840192019161274892612cca565b019384015261028383017f7b2274726169745f74797065223a20227175616c697479496e73706563746f7290526102a38301526102a58201528151906102b192828985840192019161279992612cca565b019063227d5d7d60e01b9082015203610295810182526102b5016127bd9082612df3565b6127c690613571565b9060405180928582017f646174613a6170706c69636174696f6e2f6a736f6e3b6261736536342c00000090528051908187603d850192019161280792612cca565b810103601d81018352603d0161281d9083612df3565b6000838152600260205260409020546001600160a01b03161561298a578285526006845260408520918051968711611b42576128598354612e84565b601f8111612944575b508490601f88116001146128c657968092819288997ff8e1a15aba9398e019f0b49df1a4fde98ee17ae345cb5f6b5e2c27f5033e8ce799946128bb575b50501b916000199060031b1c19161790555b604051908152a180f35b01519250388061289f565b838752858720909791601f198316885b81811061292f575098837ff8e1a15aba9398e019f0b49df1a4fde98ee17ae345cb5f6b5e2c27f5033e8ce7999a10612916575b505050811b0190556128b1565b015160001960f88460031b161c19169055388080612909565b8a8301518455928501929188019188016128d6565b838752858720601f890160051c810191878a10612980575b601f0160051c019083905b828110612975575050612862565b888155018390612967565b909150819061295c565b60405162461bcd60e51b815260048101859052602e60248201527f45524337323155524953746f726167653a2055524920736574206f66206e6f6e60448201526d32bc34b9ba32b73a103a37b5b2b760911b6064820152608490fd5b503461021a576104ef6129f836612d43565b91612a066104d58433613162565b61322a565b503461021a57604036600319011261021a57612a25612d12565b602435906001600160a01b038080612a3c85613028565b16921691808314612b3157803314908115612b10575b5015612aa55782845260046020526040842080546001600160a01b03191683179055612a7d83613028565b167f8c5be1e5ebec7d5bd14f71427d1e84f3dd0314c0f7b2291e5b200ac8c7c3b9258480a480f35b60405162461bcd60e51b815260206004820152603d60248201527f4552433732313a20617070726f76652063616c6c6572206973206e6f7420746f60448201527f6b656e206f776e6572206f7220617070726f76656420666f7220616c6c0000006064820152608490fd5b9050845260056020526040842033855260205260ff60408520541638612a52565b60405162461bcd60e51b815260206004820152602160248201527f4552433732313a20617070726f76616c20746f2063757272656e74206f776e656044820152603960f91b6064820152608490fd5b503461021a57602036600319011261021a5760206115fa60043561304b565b503461021a578060031936011261021a5760405190808054612bc081612e84565b808552916001918083169081156107495750600114612be957610465856106db81870382612df3565b80809450527f290decd9548b62a8d60345a988386fc84ba6bc95484008f6362f93160ef3e5635b828410612c2b5750505081016020016106db826104656106cb565b80546020858701810191909152909301928101612c10565b9050346111cc5760203660031901126111cc5760043563ffffffff60e01b81168091036105c85760209250632483248360e11b8114908115612c87575b5015158152f35b6380ac58cd60e01b811491508115612cb9575b8115612ca8575b5038612c80565b6301ffc9a760e01b14905038612ca1565b635b5e139f60e01b81149150612c9a565b60005b838110612cdd5750506000910152565b8181015183820152602001612ccd565b90602091612d0681518092818552858086019101612cca565b601f01601f1916010190565b600435906001600160a01b0382168203612d2857565b600080fd5b602435906001600160a01b0382168203612d2857565b6060906003190112612d28576001600160a01b03906004358281168103612d2857916024359081168103612d28579060443590565b61016081019081106001600160401b03821117612d9457604052565b634e487b7160e01b600052604160045260246000fd5b6001600160401b038111612d9457604052565b602081019081106001600160401b03821117612d9457604052565b606081019081106001600160401b03821117612d9457604052565b90601f801991011681019081106001600160401b03821117612d9457604052565b6001600160401b038111612d9457601f01601f191660200190565b929192612e3b82612e14565b91612e496040519384612df3565b829481845281830111612d28578281602093846000960137010152565b9080601f83011215612d2857816020612e8193359101612e2f565b90565b90600182811c92168015612eb4575b6020831014612e9e57565b634e487b7160e01b600052602260045260246000fd5b91607f1691612e93565b9060405191826000825492612ed284612e84565b908184526001948581169081600014612f415750600114612efe575b5050612efc92500383612df3565b565b9093915060005260209081600020936000915b818310612f29575050612efc93508201013880612eee565b85548884018501529485019487945091830191612f11565b915050612efc94506020925060ff191682840152151560051b8201013880612eee565b60031115612f6e57565b634e487b7160e01b600052602160045260246000fd5b6007546001600160a01b03163303612f9857565b606460405162461bcd60e51b815260206004820152602060248201527f4f776e61626c653a2063616c6c6572206973206e6f7420746865206f776e65726044820152fd5b15612fe357565b60405162461bcd60e51b815260206004820152601860248201527f4552433732313a20696e76616c696420746f6b656e20494400000000000000006044820152606490fd5b6000908152600260205260409020546001600160a01b0316612e81811515612fdc565b60008181526002602052604090205461306e906001600160a01b03161515612fdc565b6000908152600460205260409020546001600160a01b031690565b1561309057565b60405162461bcd60e51b815260206004820152602d60248201527f4552433732313a2063616c6c6572206973206e6f7420746f6b656e206f776e6560448201526c1c881bdc88185c1c1c9bdd9959609a1b6064820152608490fd5b60809060208152603260208201527f4552433732313a207472616e7366657220746f206e6f6e20455243373231526560408201527131b2b4bb32b91034b6b83632b6b2b73a32b960711b60608201520190565b1561314557565b60405162461bcd60e51b81528061315e600482016130eb565b0390fd5b906001600160a01b03808061317684613028565b169316918383149384156131a9575b508315613193575b50505090565b61319f9192935061304b565b161438808061318d565b909350600052600560205260406000208260005260205260ff604060002054169238613185565b156131d757565b60405162461bcd60e51b815260206004820152602560248201527f4552433732313a207472616e736665722066726f6d20696e636f72726563742060448201526437bbb732b960d91b6064820152608490fd5b906132529161323884613028565b6001600160a01b03939184169284929091831684146131d0565b169182156132ea578161326f9161326886613028565b16146131d0565b7fddf252ad1be2c89b69c2b068fc378daa952ba7f163c4a11628f55a4df523b3ef60008481526004602052604081206001600160601b0360a01b9081815416905583825260036020526040822060001981540190558482526040822060018154019055858252600260205284604083209182541617905580a4565b60405162461bcd60e51b8152602060048201526024808201527f4552433732313a207472616e7366657220746f20746865207a65726f206164646044820152637265737360e01b6064820152608490fd5b9192600092909190803b1561344d57613389946040518092630a85bd0160e11b9485835233600484015287602484015260448301526080606483015281878160209a8b966084830190612ced565b03926001600160a01b03165af184918161340d575b506133fc575050503d6000146133f4573d6133b881612e14565b906133c66040519283612df3565b81528091833d92013e5b805191826133f15760405162461bcd60e51b81528061315e600482016130eb565b01fd5b5060606133d0565b6001600160e01b0319161492509050565b9091508581813d8311613446575b6134258183612df3565b810103126104f257516001600160e01b0319811681036104f257903861339e565b503d61341b565b5050915050600190565b9293600093909291803b156134d7579484916134b19660405180948193630a85bd0160e11b9788845233600485015260018060a01b0380921660248501526044840152608060648401528260209b8c976084830190612ced565b0393165af184918161340d57506133fc575050503d6000146133f4573d6133b881612e14565b505050915050600190565b156134e957565b60405162461bcd60e51b81526020600482015260146024820152735461736b206e6f7420696e2070726f677265737360601b6044820152606490fd5b1561352c57565b60405162461bcd60e51b815260206004820152601c60248201527f4552433732313a20746f6b656e20616c7265616479206d696e746564000000006044820152606490fd5b8051156136c45760405161358481612dd8565b604081527f4142434445464748494a4b4c4d4e4f505152535455565758595a61626364656660208201527f6768696a6b6c6d6e6f707172737475767778797a303132333435363738392b2f604082015281516002928382018092116103dc5760039182900480851b94906001600160fe1b038116036103dc579261362061360a86612e14565b956136186040519788612df3565b808752612e14565b6020860190601f190136823793829183518401925b838110613673575050505051068060011461366057600214613655575090565b603d90600019015390565b50603d9081600019820153600119015390565b85600491979293949701918251600190603f9082828260121c16880101518453828282600c1c16880101518385015382828260061c1688010151888501531685010151878201530195929190613635565b506040516136d181612dbd565b6000815290565b60ff60579116019060ff82116103dc57565b60ff60309116019060ff82116103dc57565b90815181101561370d570160200190565b634e487b7160e01b600052603260045260246000fd5b6040519061373082612dd8565b60288252604036602084013760005b6014811061374c57505090565b60138181039081116103dc57600381901b906001600160fd1b038116036103dc5760ff908181116103dc5760019081811b156138b3576001600160a01b038516901c60f081168382160392600491600f90831c169080851161389e57600a9182811015613881576001600160f81b0319906137c6906136ea565b60f81b16945b86851b956001600160ff1b038816880361386c5760001a6137ed878b6136fc565b53169081101561384f576001600160f81b03199061380a906136ea565b60f81b16915b830180931161383a57506138289060001a91856136fc565b5360001981146103dc5760010161373f565b601190634e487b7160e01b6000525260246000fd5b6001600160f81b031990613862906136d8565b60f81b1691613810565b601185634e487b7160e01b6000525260246000fd5b6001600160f81b031990613894906136d8565b60f81b16946137cc565b601183634e487b7160e01b6000525260246000fd5b634e487b7160e01b600052601260045260246000fd5b600b546040516370a0823160e01b815230600482015290602090829060249082906001600160a01b03165afa90811561393557600091613907575090565b906020823d821161392d575b8161392060209383612df3565b8101031261021a57505190565b3d9150613913565b6040513d6000823e3d90fdfea26469706673582212208e767a780ec2a4ef6e52a3f2529277a2d2779e8644bd3266e59b03aebe04c8f264736f6c63430008130033",
  "linkReferences": {},
  "deployedLinkReferences": {}
}